{
  "_format": "hh-sol-artifact-1",
  "contractName": "Staking",
  "sourceName": "contracts/periphery/test/Staking.sol",
  "abi": [
    {
      "inputs": [
        {
          "internalType": "address",
          "name": "rewardToken",
          "type": "address"
        },
        {
          "internalType": "address",
          "name": "stackingToken",
          "type": "address"
        },
        {
          "internalType": "uint256",
          "name": "startsAt",
          "type": "uint256"
        },
        {
          "internalType": "uint256",
          "name": "durationInBlocks",
          "type": "uint256"
        },
        {
          "internalType": "uint256",
          "name": "lpLockTime",
          "type": "uint256"
        },
        {
          "internalType": "uint256",
          "name": "stakersLimit",
          "type": "uint256"
        },
        {
          "internalType": "uint256",
          "name": "maxStakePerStaker",
          "type": "uint256"
        },
        {
          "internalType": "uint256",
          "name": "lpTotalLimit",
          "type": "uint256"
        },
        {
          "internalType": "uint256",
          "name": "rewardsPerBlock",
          "type": "uint256"
        }
      ],
      "stateMutability": "nonpayable",
      "type": "constructor"
    },
    {
      "anonymous": false,
      "inputs": [
        {
          "indexed": true,
          "internalType": "bool",
          "name": "value",
          "type": "bool"
        },
        {
          "indexed": false,
          "internalType": "address",
          "name": "operator",
          "type": "address"
        }
      ],
      "name": "ActiveSet",
      "type": "event"
    },
    {
      "anonymous": false,
      "inputs": [
        {
          "indexed": true,
          "internalType": "address",
          "name": "stakerAddress",
          "type": "address"
        },
        {
          "indexed": false,
          "internalType": "bool",
          "name": "payHarvest",
          "type": "bool"
        },
        {
          "indexed": true,
          "internalType": "address",
          "name": "operator",
          "type": "address"
        }
      ],
      "name": "EmergencyWithdrawals",
      "type": "event"
    },
    {
      "anonymous": false,
      "inputs": [
        {
          "indexed": false,
          "internalType": "uint256",
          "name": "amount",
          "type": "uint256"
        },
        {
          "indexed": true,
          "internalType": "address",
          "name": "operator",
          "type": "address"
        }
      ],
      "name": "Harvested",
      "type": "event"
    },
    {
      "anonymous": false,
      "inputs": [
        {
          "indexed": false,
          "internalType": "uint256",
          "name": "newMaxStakePerStaker",
          "type": "uint256"
        },
        {
          "indexed": true,
          "internalType": "address",
          "name": "operator",
          "type": "address"
        }
      ],
      "name": "MaxStakePerStakerSet",
      "type": "event"
    },
    {
      "anonymous": false,
      "inputs": [
        {
          "indexed": true,
          "internalType": "address",
          "name": "previousOwner",
          "type": "address"
        },
        {
          "indexed": true,
          "internalType": "address",
          "name": "newOwner",
          "type": "address"
        }
      ],
      "name": "OwnershipTransferred",
      "type": "event"
    },
    {
      "anonymous": false,
      "inputs": [
        {
          "indexed": true,
          "internalType": "uint256",
          "name": "newRewardPerBlock",
          "type": "uint256"
        },
        {
          "indexed": true,
          "internalType": "address",
          "name": "operator",
          "type": "address"
        }
      ],
      "name": "RewardPerBlockSet",
      "type": "event"
    },
    {
      "anonymous": false,
      "inputs": [
        {
          "indexed": true,
          "internalType": "address",
          "name": "tokenAddress",
          "type": "address"
        },
        {
          "indexed": false,
          "internalType": "uint256",
          "name": "amount",
          "type": "uint256"
        },
        {
          "indexed": true,
          "internalType": "address",
          "name": "operator",
          "type": "address"
        }
      ],
      "name": "RewardsDeposited",
      "type": "event"
    },
    {
      "anonymous": false,
      "inputs": [
        {
          "indexed": false,
          "internalType": "address",
          "name": "rewardToken",
          "type": "address"
        },
        {
          "indexed": false,
          "internalType": "address",
          "name": "stackingToken",
          "type": "address"
        },
        {
          "indexed": false,
          "internalType": "uint256",
          "name": "startsAt",
          "type": "uint256"
        },
        {
          "indexed": false,
          "internalType": "uint256",
          "name": "lpLockTime",
          "type": "uint256"
        },
        {
          "indexed": false,
          "internalType": "uint256",
          "name": "lpTotalLimit",
          "type": "uint256"
        },
        {
          "indexed": false,
          "internalType": "uint256",
          "name": "stakersLimit",
          "type": "uint256"
        },
        {
          "indexed": false,
          "internalType": "uint256",
          "name": "maxStakePerStaker",
          "type": "uint256"
        },
        {
          "indexed": false,
          "internalType": "uint256",
          "name": "rewardsPerBlock",
          "type": "uint256"
        },
        {
          "indexed": false,
          "internalType": "uint256",
          "name": "durationInBlocks",
          "type": "uint256"
        }
      ],
      "name": "StakeCreated",
      "type": "event"
    },
    {
      "anonymous": false,
      "inputs": [
        {
          "indexed": false,
          "internalType": "uint256",
          "name": "startsAt",
          "type": "uint256"
        },
        {
          "indexed": false,
          "internalType": "uint256",
          "name": "blocksDuration",
          "type": "uint256"
        },
        {
          "indexed": false,
          "internalType": "uint256",
          "name": "lpLockTime",
          "type": "uint256"
        },
        {
          "indexed": false,
          "internalType": "uint256",
          "name": "stakersLimit",
          "type": "uint256"
        },
        {
          "indexed": false,
          "internalType": "uint256",
          "name": "maxStakePerStaker",
          "type": "uint256"
        },
        {
          "indexed": true,
          "internalType": "uint256",
          "name": "newRewardPerBlock",
          "type": "uint256"
        },
        {
          "indexed": true,
          "internalType": "address",
          "name": "operator",
          "type": "address"
        }
      ],
      "name": "StakeUpdated",
      "type": "event"
    },
    {
      "anonymous": false,
      "inputs": [
        {
          "indexed": false,
          "internalType": "uint256",
          "name": "amount",
          "type": "uint256"
        },
        {
          "indexed": true,
          "internalType": "address",
          "name": "operator",
          "type": "address"
        }
      ],
      "name": "TokenWithdrawed",
      "type": "event"
    },
    {
      "anonymous": false,
      "inputs": [
        {
          "indexed": false,
          "internalType": "uint256",
          "name": "amount",
          "type": "uint256"
        },
        {
          "indexed": true,
          "internalType": "address",
          "name": "operator",
          "type": "address"
        }
      ],
      "name": "TokensStaked",
      "type": "event"
    },
    {
      "anonymous": false,
      "inputs": [
        {
          "indexed": false,
          "internalType": "uint256",
          "name": "amount",
          "type": "uint256"
        },
        {
          "indexed": true,
          "internalType": "address",
          "name": "operator",
          "type": "address"
        }
      ],
      "name": "Withdrawed",
      "type": "event"
    },
    {
      "inputs": [],
      "name": "BLOCKS_IN_YEAR",
      "outputs": [
        {
          "internalType": "uint256",
          "name": "",
          "type": "uint256"
        }
      ],
      "stateMutability": "view",
      "type": "function"
    },
    {
      "inputs": [
        {
          "internalType": "address",
          "name": "stakerAddress",
          "type": "address"
        }
      ],
      "name": "earned",
      "outputs": [
        {
          "internalType": "uint256",
          "name": "",
          "type": "uint256"
        }
      ],
      "stateMutability": "view",
      "type": "function"
    },
    {
      "inputs": [
        {
          "internalType": "address",
          "name": "stakerAddress",
          "type": "address"
        },
        {
          "internalType": "bool",
          "name": "payHarvest",
          "type": "bool"
        }
      ],
      "name": "emergencyWithdrawal",
      "outputs": [],
      "stateMutability": "nonpayable",
      "type": "function"
    },
    {
      "inputs": [],
      "name": "getStakeConditionsInfo",
      "outputs": [
        {
          "internalType": "uint256",
          "name": "",
          "type": "uint256"
        },
        {
          "internalType": "uint256",
          "name": "",
          "type": "uint256"
        },
        {
          "internalType": "uint256",
          "name": "",
          "type": "uint256"
        },
        {
          "internalType": "uint256",
          "name": "",
          "type": "uint256"
        },
        {
          "internalType": "uint256",
          "name": "",
          "type": "uint256"
        },
        {
          "internalType": "uint256",
          "name": "",
          "type": "uint256"
        }
      ],
      "stateMutability": "view",
      "type": "function"
    },
    {
      "inputs": [],
      "name": "getStakeInfo",
      "outputs": [
        {
          "internalType": "uint256",
          "name": "",
          "type": "uint256"
        },
        {
          "internalType": "uint256",
          "name": "",
          "type": "uint256"
        },
        {
          "internalType": "address",
          "name": "",
          "type": "address"
        },
        {
          "internalType": "address",
          "name": "",
          "type": "address"
        },
        {
          "internalType": "uint256",
          "name": "",
          "type": "uint256"
        },
        {
          "internalType": "uint256",
          "name": "",
          "type": "uint256"
        },
        {
          "internalType": "uint256",
          "name": "",
          "type": "uint256"
        },
        {
          "internalType": "uint256",
          "name": "",
          "type": "uint256"
        },
        {
          "internalType": "bool",
          "name": "",
          "type": "bool"
        }
      ],
      "stateMutability": "view",
      "type": "function"
    },
    {
      "inputs": [
        {
          "internalType": "address",
          "name": "token",
          "type": "address"
        }
      ],
      "name": "getTokenBalance",
      "outputs": [
        {
          "internalType": "uint256",
          "name": "",
          "type": "uint256"
        }
      ],
      "stateMutability": "view",
      "type": "function"
    },
    {
      "inputs": [
        {
          "internalType": "address",
          "name": "userAddress",
          "type": "address"
        }
      ],
      "name": "getUserInfo",
      "outputs": [
        {
          "components": [
            {
              "internalType": "address",
              "name": "stakerAddress",
              "type": "address"
            },
            {
              "internalType": "uint256",
              "name": "balance",
              "type": "uint256"
            },
            {
              "internalType": "uint256",
              "name": "rewards",
              "type": "uint256"
            },
            {
              "internalType": "uint256",
              "name": "rewardPerTokenPaid",
              "type": "uint256"
            },
            {
              "internalType": "uint256",
              "name": "startBlock",
              "type": "uint256"
            },
            {
              "internalType": "uint256",
              "name": "startTime",
              "type": "uint256"
            }
          ],
          "internalType": "struct Staking.Staker",
          "name": "",
          "type": "tuple"
        }
      ],
      "stateMutability": "view",
      "type": "function"
    },
    {
      "inputs": [],
      "name": "harvest",
      "outputs": [],
      "stateMutability": "nonpayable",
      "type": "function"
    },
    {
      "inputs": [],
      "name": "owner",
      "outputs": [
        {
          "internalType": "address",
          "name": "",
          "type": "address"
        }
      ],
      "stateMutability": "view",
      "type": "function"
    },
    {
      "inputs": [],
      "name": "renounceOwnership",
      "outputs": [],
      "stateMutability": "nonpayable",
      "type": "function"
    },
    {
      "inputs": [],
      "name": "rewardPerToken",
      "outputs": [
        {
          "internalType": "uint256",
          "name": "",
          "type": "uint256"
        }
      ],
      "stateMutability": "view",
      "type": "function"
    },
    {
      "inputs": [
        {
          "internalType": "bool",
          "name": "value",
          "type": "bool"
        }
      ],
      "name": "setActive",
      "outputs": [],
      "stateMutability": "nonpayable",
      "type": "function"
    },
    {
      "inputs": [
        {
          "internalType": "uint256",
          "name": "_newRewardPerBlock",
          "type": "uint256"
        }
      ],
      "name": "setRewardPerBlock",
      "outputs": [],
      "stateMutability": "nonpayable",
      "type": "function"
    },
    {
      "inputs": [
        {
          "internalType": "uint256",
          "name": "amount",
          "type": "uint256"
        }
      ],
      "name": "stakeTokens",
      "outputs": [],
      "stateMutability": "payable",
      "type": "function"
    },
    {
      "inputs": [
        {
          "internalType": "address",
          "name": "newOwner",
          "type": "address"
        }
      ],
      "name": "transferOwnership",
      "outputs": [],
      "stateMutability": "nonpayable",
      "type": "function"
    },
    {
      "inputs": [
        {
          "internalType": "uint256",
          "name": "newStartsAt",
          "type": "uint256"
        },
        {
          "internalType": "uint256",
          "name": "newBlocksDuration",
          "type": "uint256"
        },
        {
          "internalType": "uint256",
          "name": "newLpLockTime",
          "type": "uint256"
        },
        {
          "internalType": "uint256",
          "name": "newStakersLimit",
          "type": "uint256"
        },
        {
          "internalType": "uint256",
          "name": "newMaxStakePerStaker",
          "type": "uint256"
        },
        {
          "internalType": "uint256",
          "name": "newRewardPerBlock",
          "type": "uint256"
        }
      ],
      "name": "updateStake",
      "outputs": [],
      "stateMutability": "nonpayable",
      "type": "function"
    },
    {
      "inputs": [
        {
          "internalType": "uint256",
          "name": "amount",
          "type": "uint256"
        }
      ],
      "name": "withdraw",
      "outputs": [],
      "stateMutability": "nonpayable",
      "type": "function"
    },
    {
      "inputs": [
        {
          "internalType": "address",
          "name": "token",
          "type": "address"
        },
        {
          "internalType": "uint256",
          "name": "amount",
          "type": "uint256"
        }
      ],
      "name": "withdrawTokens",
      "outputs": [],
      "stateMutability": "nonpayable",
      "type": "function"
    },
    {
      "stateMutability": "payable",
      "type": "receive"
    }
  ],
  "bytecode": "0x60806040523480156200001157600080fd5b50604051620021bb380380620021bb8339810160408190526200003491620001b7565b6000620000496001600160e01b036200019516565b600080546001600160a01b0319166001600160a01b0383169081178255604051929350917f8be0079c531659141344cd1fd0a4f28419497f9722a3daafe3b4186f6b6457e0908290a3506001808190555088600360006101000a8154816001600160a01b0302191690836001600160a01b0316021790555087600460006101000a8154816001600160a01b0302191690836001600160a01b03160217905550866005819055508543016007819055508460088190555081600b8190555083600c8190555082600d8190555080600e81905550856006819055506001601160006101000a81548160ff0219169083151502179055507f5568e5315553bc68e64dbd9441e17f55c9c1faf3a4773868417bb4e352adadf089898988868989888e6040516200017e9998979695949392919062000234565b60405180910390a150505050505050505062000281565b3390565b80516001600160a01b0381168114620001b157600080fd5b92915050565b60008060008060008060008060006101208a8c031215620001d6578485fd5b620001e28b8b62000199565b9850620001f38b60208c0162000199565b975060408a0151965060608a0151955060808a0151945060a08a0151935060c08a0151925060e08a015191506101008a015190509295985092959850929598565b6001600160a01b03998a16815297909816602088015260408701959095526060860193909352608085019190915260a084015260c083015260e08201526101008101919091526101200190565b611f2a80620002916000396000f3fe60806040526004361061012c5760003560e01c806374a4030f116100a5578063acec338a11610074578063cd3daf9d11610059578063cd3daf9d1461032d578063dd421cd514610342578063f2fde38b1461035757610133565b8063acec338a146102ed578063bb872b4a1461030d57610133565b806374a4030f1461026e5780637547c7a3146102985780638cbf5309146102ab5780638da5cb5b146102cb57610133565b80633aecd0e3116100fc5780634d1f7e65116100e15780634d1f7e65146102055780636386c1c71461022c578063715018a61461025957610133565b80633aecd0e3146101d05780634641257d146101f057610133565b80628cc2621461013857806306b091f91461016e57806321d18adc146101905780632e1a7d4d146101b057610133565b3661013357005b600080fd5b34801561014457600080fd5b5061015861015336600461160e565b610377565b6040516101659190611e16565b60405180910390f35b34801561017a57600080fd5b5061018e610189366004611660565b610429565b005b34801561019c57600080fd5b5061018e6101ab366004611629565b610539565b3480156101bc57600080fd5b5061018e6101cb3660046116c2565b61068b565b3480156101dc57600080fd5b506101586101eb36600461160e565b610750565b3480156101fc57600080fd5b5061018e610803565b34801561021157600080fd5b5061021a6108c1565b60405161016596959493929190611e8f565b34801561023857600080fd5b5061024c61024736600461160e565b6108db565b6040516101659190611dc9565b34801561026557600080fd5b5061018e610947565b34801561027a57600080fd5b506102836109dd565b60405161016599989796959493929190611e1f565b61018e6102a63660046116c2565b610a17565b3480156102b757600080fd5b5061018e6102c63660046116f2565b610ad2565b3480156102d757600080fd5b506102e0610bb9565b6040516101659190611750565b3480156102f957600080fd5b5061018e61030836600461168a565b610bc9565b34801561031957600080fd5b5061018e6103283660046116c2565b610c78565b34801561033957600080fd5b50610158610cfd565b34801561034e57600080fd5b50610158610d6a565b34801561036357600080fd5b5061018e61037236600461160e565b610d71565b60006103816115b2565b506001600160a01b038083166000908152600260208181526040808420815160c08101835281549096168652600181015492860192909252918101549184019190915260038101546060840152600481015460808401526005015460a08301526103e9610cfd565b9050806103fa57604082015161041f565b8160400151670de0b6b3a7640000836060015183038460200151028161041c57fe5b04015b925050505b919050565b600260015414156104555760405162461bcd60e51b815260040161044c90611d92565b60405180910390fd5b6002600155610462610e3e565b6001600160a01b0316610473610bb9565b6001600160a01b0316146104995760405162461bcd60e51b815260040161044c90611b6a565b62201480600754014310156104d6576004546001600160a01b03838116911614156104d65760405162461bcd60e51b815260040161044c906118d0565b6104e86104e1610e3e565b8383610e42565b506104f1610e3e565b6001600160a01b03167f549f2eb667ba04b83e4c67d04bac415b0d7f88ad1fc93a2c42e2be587be13996826040516105299190611e16565b60405180910390a2505060018055565b610541610e3e565b6001600160a01b0316610552610bb9565b6001600160a01b0316146105785760405162461bcd60e51b815260040161044c90611b6a565b6002600154141561059b5760405162461bcd60e51b815260040161044c90611d92565b600260018190556001600160a01b03831660009081526020919091526040902082906105c5610cfd565b600f5560075443106105d9576007546105db565b435b6010556105e782610377565b600280830191909155600f5460038301556001600160a01b03851660009081526020919091526040902083156106205761062081610f2d565b61062e818260010154610fce565b610636610e3e565b6001600160a01b0316856001600160a01b03167fe93fa6a645641a36905340a61cd25d38302a191c89de1b6192165729647f2dbc8660405161067891906117a1565b60405180910390a3505060018055505050565b600260015414156106ae5760405162461bcd60e51b815260040161044c90611d92565b60026001556106bb610e3e565b6001600160a01b03811660009081526002602052604090206106db610cfd565b600f5560075443106106ef576007546106f1565b435b6010556106fd82610377565b600280830191909155600f5460038301556000908161071a610e3e565b6001600160a01b03166001600160a01b0316815260200190815260200160002090506107468185610fce565b5050600180555050565b60006001600160a01b038216610767575047610424565b6040517f70a082310000000000000000000000000000000000000000000000000000000081526001600160a01b038316906370a08231906107ac903090600401611750565b60206040518083038186803b1580156107c457600080fd5b505afa1580156107d8573d6000803e3d6000fd5b505050506040513d601f19601f820116820180604052508101906107fc91906116da565b9050610424565b600260015414156108265760405162461bcd60e51b815260040161044c90611d92565b6002600155610833610e3e565b6001600160a01b0381166000908152600260205260409020610853610cfd565b600f55600754431061086757600754610869565b435b60105561087582610377565b600280830191909155600f5460038301556108b9906000610894610e3e565b6001600160a01b03166001600160a01b03168152602001908152602001600020610f2d565b505060018055565b600854600b54600c54600d54600f54600654909192939495565b6108e36115b2565b506001600160a01b03908116600090815260026020818152604092839020835160c08101855281549095168552600181015491850191909152908101549183019190915260038101546060830152600481015460808301526005015460a082015290565b61094f610e3e565b6001600160a01b0316610960610bb9565b6001600160a01b0316146109865760405162461bcd60e51b815260040161044c90611b6a565b600080546040516001600160a01b03909116907f8be0079c531659141344cd1fd0a4f28419497f9722a3daafe3b4186f6b6457e0908390a36000805473ffffffffffffffffffffffffffffffffffffffff19169055565b600554600754600354600454600a54600954600e546010546011546001600160a01b0396871696959095169460ff16909192939495969798565b60026001541415610a3a5760405162461bcd60e51b815260040161044c90611d92565b6002600155610a47610e3e565b6001600160a01b0381166000908152600260205260409020610a67610cfd565b600f556007544310610a7b57600754610a7d565b435b601055610a8982610377565b600280830191909155600f54600383015560009081610aa6610e3e565b6001600160a01b03166001600160a01b031681526020019081526020016000209050610746818561112b565b610ada610e3e565b6001600160a01b0316610aeb610bb9565b6001600160a01b031614610b115760405162461bcd60e51b815260040161044c90611b6a565b600554421015610b2657600884905560058690555b600554421080610b37575083600854115b15610b425760088490555b4385016007556006859055600c839055600d829055600e819055610b64610e3e565b6001600160a01b0316817fc497fa4a972273f140b9fadcd1c85898a9d668bc469bbeea646138827d2785a8600554886008548888604051610ba9959493929190611e6c565b60405180910390a3505050505050565b6000546001600160a01b03165b90565b610bd1610e3e565b6001600160a01b0316610be2610bb9565b6001600160a01b031614610c085760405162461bcd60e51b815260040161044c90611b6a565b601180547fffffffffffffffffffffffffffffffffffffffffffffffffffffffffffffff00168215159081179091557fd149a575534195e63c1803d2e12c53ab1be7408663633419e980e14690af2686610c60610e3e565b604051610c6d9190611750565b60405180910390a250565b610c80610e3e565b6001600160a01b0316610c91610bb9565b6001600160a01b031614610cb75760405162461bcd60e51b815260040161044c90611b6a565b600e819055610cc4610e3e565b6001600160a01b0316817f2cc57c7e0027bbcbefac66e7afd968de61ed8de2f50fd07f1a4b987ae1d6e99560405160405180910390a350565b601054600754600a546000929190610d1a57600092505050610bc6565b6000814311610d295743610d2b565b815b90506000818410610d3d576000610d41565b8382035b9050600a5481600e5402670de0b6b3a76400000281610d5c57fe5b04600f540194505050505090565b6220148081565b610d79610e3e565b6001600160a01b0316610d8a610bb9565b6001600160a01b031614610db05760405162461bcd60e51b815260040161044c90611b6a565b6001600160a01b038116610dd65760405162461bcd60e51b815260040161044c9061183c565b600080546040516001600160a01b03808516939216917f8be0079c531659141344cd1fd0a4f28419497f9722a3daafe3b4186f6b6457e091a36000805473ffffffffffffffffffffffffffffffffffffffff19166001600160a01b0392909216919091179055565b3390565b600081610e4e84610750565b1015610e6c5760405162461bcd60e51b815260040161044c90611bd6565b6001600160a01b038316610f00576000846001600160a01b031683604051610e9390610bc6565b60006040518083038185875af1925050503d8060008114610ed0576040519150601f19603f3d011682016040523d82523d6000602084013e610ed5565b606091505b5050905080610ef65760405162461bcd60e51b815260040161044c9061192d565b6001915050610f26565b610f22610f0b610e3e565b6001600160a01b038516908463ffffffff61135d16565b5060015b9392505050565b6004810154610f4e5760405162461bcd60e51b815260040161044c906119bf565b60028101548015610f8457600060028301554360048301558154600354610f82916001600160a01b03908116911683610e42565b505b81546040516001600160a01b03909116907fc22257ea55ac36f7b0cd84b3c13bb1b0ec54d708194c434b325188353a523bba90610fc2908490611e16565b60405180910390a25050565b8160010154811115610ff25760405162461bcd60e51b815260040161044c90611899565b600081116110125760405162461bcd60e51b815260040161044c90611962565b61101a610bb9565b6001600160a01b031661102b610e3e565b6001600160a01b03161461106d5760085482600501540142101580611051575060075443115b61106d5760405162461bcd60e51b815260040161044c90611b9f565b600a8054829003905560018201548114156110c457600980547fffffffffffffffffffffffffffffffffffffffffffffffffffffffffffffffff0190556000600483018190556005830181905560018301556110d0565b60018201805482900390555b81546004546110ec916001600160a01b03908116911683610e42565b5081546040516001600160a01b03909116907fa54ce7327877aa2bfe1c079e3bb0da2b7a774fe90a5af3afb74369f940e69c8a90610fc2908490611e16565b6000811161114b5760405162461bcd60e51b815260040161044c90611ab0565b60115460ff1661116d5760405162461bcd60e51b815260040161044c90611cd8565b60055442101561118f5760405162461bcd60e51b815260040161044c906117df565b6007544311156111b15760405162461bcd60e51b815260040161044c90611a53565b600c54156111dc57600c54600954106111dc5760405162461bcd60e51b815260040161044c90611c0d565b600b541561120a57600b5481600a5401111561120a5760405162461bcd60e51b815260040161044c90611c0d565b600d541561123a57600d5481836001015401111561123a5760405162461bcd60e51b815260040161044c90611b0d565b600a805482019055600182018054820190556004546001600160a01b03166112ab578034101561127c5760405162461bcd60e51b815260040161044c90611ca1565b803411156112a6576112a461128f610e3e565b6004546001600160a01b031634849003610e42565b505b6112d0565b6112d06112b6610e3e565b6004546001600160a01b031690308463ffffffff6113e516565b600482015461131f576009805460010190554360048301554260058301556112f6610e3e565b825473ffffffffffffffffffffffffffffffffffffffff19166001600160a01b03919091161782555b81546040516001600160a01b03909116907f9e4d21de6c227900b5b8728d010781c8fc172fcc6c3fe36f7cbf431c85ec780090610fc2908490611e16565b6113e08363a9059cbb60e01b848460405160240161137c929190611788565b60408051601f198184030181529190526020810180517bffffffffffffffffffffffffffffffffffffffffffffffffffffffff167fffffffff000000000000000000000000000000000000000000000000000000009093169290921790915261140c565b505050565b611406846323b872dd60e01b85858560405160240161137c93929190611764565b50505050565b6060611461826040518060400160405280602081526020017f5361666545524332303a206c6f772d6c6576656c2063616c6c206661696c6564815250856001600160a01b031661149b9092919063ffffffff16565b8051909150156113e0578080602001905181019061147f91906116a6565b6113e05760405162461bcd60e51b815260040161044c90611d35565b60606114aa84846000856114b2565b949350505050565b6060824710156114d45760405162461bcd60e51b815260040161044c906119f6565b6114dd85611573565b6114f95760405162461bcd60e51b815260040161044c90611c6a565b60006060866001600160a01b031685876040516115169190611734565b60006040518083038185875af1925050503d8060008114611553576040519150601f19603f3d011682016040523d82523d6000602084013e611558565b606091505b5091509150611568828286611579565b979650505050505050565b3b151590565b60608315611588575081610f26565b8251156115985782518084602001fd5b8160405162461bcd60e51b815260040161044c91906117ac565b6040518060c0016040528060006001600160a01b0316815260200160008152602001600081526020016000815260200160008152602001600081525090565b80356001600160a01b038116811461160857600080fd5b92915050565b60006020828403121561161f578081fd5b610f2683836115f1565b6000806040838503121561163b578081fd5b61164584846115f1565b9150602083013561165581611ee3565b809150509250929050565b60008060408385031215611672578182fd5b61167c84846115f1565b946020939093013593505050565b60006020828403121561169b578081fd5b8135610f2681611ee3565b6000602082840312156116b7578081fd5b8151610f2681611ee3565b6000602082840312156116d3578081fd5b5035919050565b6000602082840312156116eb578081fd5b5051919050565b60008060008060008060c0878903121561170a578182fd5b505084359660208601359650604086013595606081013595506080810135945060a0013592509050565b60008251611746818460208701611eb7565b9190910192915050565b6001600160a01b0391909116815260200190565b6001600160a01b039384168152919092166020820152604081019190915260600190565b6001600160a01b03929092168252602082015260400190565b901515815260200190565b60006020825282518060208401526117cb816040850160208701611eb7565b601f01601f19169190910160400192915050565b60208082526029908201527f5374616b696e673a2054686973207374616b696e6720686173206e6f7420737460408201527f6172746564207965740000000000000000000000000000000000000000000000606082015260800190565b60208082526026908201527f4f776e61626c653a206e6577206f776e657220697320746865207a65726f206160408201527f6464726573730000000000000000000000000000000000000000000000000000606082015260800190565b6020808252600f908201527f457863656564732062616c616e63650000000000000000000000000000000000604082015260600190565b6020808252603a908201527f5374616b696e673a2063616e206e6f7420776974686472617720737461636b6960408201527f6e6720746f6b656e73206265666f7265206c6f636b2074696d65000000000000606082015260800190565b6020808252818101527f47616d655374616b653a206661696c656420746f2073656e6420546f6b656e73604082015260600190565b60208082526021908201527f42616c616e6365206d7573742062652067726561746572207468616e207a657260408201527f6f00000000000000000000000000000000000000000000000000000000000000606082015260800190565b6020808252601d908201527f5374616b696e673a20596f7520617265206e6f742061207374616b6572000000604082015260600190565b60208082526026908201527f416464726573733a20696e73756666696369656e742062616c616e636520666f60408201527f722063616c6c0000000000000000000000000000000000000000000000000000606082015260800190565b60208082526029908201527f5374616b696e673a2054686973207374616b696e672069732063757272656e7460408201527f6c7920636c6f7365640000000000000000000000000000000000000000000000606082015260800190565b60208082526029908201527f5374616b696e673a20416d6f756e74206d75737420626520677265617465722060408201527f7468616e207a65726f0000000000000000000000000000000000000000000000606082015260800190565b60208082526029908201527f5374616b696e673a20596f757220746f74616c207374616b652073697a65206960408201527f7320746f6f206269670000000000000000000000000000000000000000000000606082015260800190565b6020808252818101527f4f776e61626c653a2063616c6c6572206973206e6f7420746865206f776e6572604082015260600190565b6020808252601f908201527f5374616b696e673a20546f6f206561726c7920666f7220776974686472617700604082015260600190565b6020808252601a908201527f5374616b696e673a206e6f7420656e6f75676820746f6b656e73000000000000604082015260600190565b60208082526023908201527f5374616b696e673a2054686973207374616b6520697320616c7265616479206660408201527f756c6c0000000000000000000000000000000000000000000000000000000000606082015260800190565b6020808252601d908201527f416464726573733a2063616c6c20746f206e6f6e2d636f6e7472616374000000604082015260600190565b60208082526015908201527f5374616b696e673a2057726f6e6720616d6f756e740000000000000000000000604082015260600190565b6020808252602c908201527f5374616b696e673a2054686973207374616b6520697320696e6163746976652060408201527f6f72206e6f742065786973740000000000000000000000000000000000000000606082015260800190565b6020808252602a908201527f5361666545524332303a204552433230206f7065726174696f6e20646964206e60408201527f6f74207375636365656400000000000000000000000000000000000000000000606082015260800190565b6020808252601f908201527f5265656e7472616e637947756172643a207265656e7472616e742063616c6c00604082015260600190565b600060c0820190506001600160a01b0383511682526020830151602083015260408301516040830152606083015160608301526080830151608083015260a083015160a083015292915050565b90815260200190565b98895260208901979097526001600160a01b039586166040890152939094166060870152608086019190915260a085015260c084019190915260e083015215156101008201526101200190565b948552602085019390935260408401919091526060830152608082015260a00190565b958652602086019490945260408501929092526060840152608083015260a082015260c00190565b60005b83811015611ed2578181015183820152602001611eba565b838111156114065750506000910152565b8015158114611ef157600080fd5b5056fea264697066735822122009760c5722f7b81435923a4408d04d60177c2373efa930dc67bfd64ace71f89d64736f6c63430006060033",
  "linkReferences": {},
  "deployedLinkReferences": {}
}