{
  "_format": "hh-sol-artifact-1",
  "contractName": "Controller",
  "sourceName": "contracts/core/Controller.sol",
  "abi": [
    {
      "inputs": [
        {
          "internalType": "address[]",
          "name": "tokens",
          "type": "address[]"
        },
        {
          "internalType": "address[]",
          "name": "stakings",
          "type": "address[]"
        }
      ],
      "payable": false,
      "stateMutability": "nonpayable",
      "type": "constructor"
    },
    {
      "constant": true,
      "inputs": [],
      "name": "_factory",
      "outputs": [
        {
          "internalType": "address",
          "name": "",
          "type": "address"
        }
      ],
      "payable": false,
      "stateMutability": "view",
      "type": "function"
    },
    {
      "constant": true,
      "inputs": [
        {
          "internalType": "address",
          "name": "token",
          "type": "address"
        }
      ],
      "name": "getEarnedAmount",
      "outputs": [
        {
          "internalType": "uint256",
          "name": "",
          "type": "uint256"
        }
      ],
      "payable": false,
      "stateMutability": "view",
      "type": "function"
    },
    {
      "constant": true,
      "inputs": [
        {
          "internalType": "address",
          "name": "token",
          "type": "address"
        }
      ],
      "name": "getStaking",
      "outputs": [
        {
          "internalType": "address",
          "name": "",
          "type": "address"
        }
      ],
      "payable": false,
      "stateMutability": "view",
      "type": "function"
    },
    {
      "constant": false,
      "inputs": [
        {
          "internalType": "address",
          "name": "token",
          "type": "address"
        }
      ],
      "name": "harvestTokens",
      "outputs": [
        {
          "internalType": "bool",
          "name": "",
          "type": "bool"
        }
      ],
      "payable": false,
      "stateMutability": "nonpayable",
      "type": "function"
    },
    {
      "constant": false,
      "inputs": [
        {
          "internalType": "address",
          "name": "factory_",
          "type": "address"
        }
      ],
      "name": "setFactory",
      "outputs": [
        {
          "internalType": "bool",
          "name": "",
          "type": "bool"
        }
      ],
      "payable": false,
      "stateMutability": "nonpayable",
      "type": "function"
    },
    {
      "constant": false,
      "inputs": [
        {
          "internalType": "address",
          "name": "token",
          "type": "address"
        },
        {
          "internalType": "address",
          "name": "staking_",
          "type": "address"
        }
      ],
      "name": "setStaking",
      "outputs": [
        {
          "internalType": "bool",
          "name": "",
          "type": "bool"
        }
      ],
      "payable": false,
      "stateMutability": "nonpayable",
      "type": "function"
    },
    {
      "constant": false,
      "inputs": [
        {
          "internalType": "address",
          "name": "token",
          "type": "address"
        },
        {
          "internalType": "uint256",
          "name": "amount",
          "type": "uint256"
        }
      ],
      "name": "stakeTokens",
      "outputs": [
        {
          "internalType": "bool",
          "name": "",
          "type": "bool"
        }
      ],
      "payable": false,
      "stateMutability": "nonpayable",
      "type": "function"
    },
    {
      "constant": false,
      "inputs": [
        {
          "internalType": "address",
          "name": "token",
          "type": "address"
        },
        {
          "internalType": "uint256",
          "name": "amount",
          "type": "uint256"
        }
      ],
      "name": "withdrawToken",
      "outputs": [
        {
          "internalType": "bool",
          "name": "",
          "type": "bool"
        }
      ],
      "payable": false,
      "stateMutability": "nonpayable",
      "type": "function"
    }
  ],
  "bytecode": "0x608060405234801561001057600080fd5b50604051610b9d380380610b9d8339818101604052604081101561003357600080fd5b810190808051604051939291908464010000000082111561005357600080fd5b90830190602082018581111561006857600080fd5b825186602082028301116401000000008211171561008557600080fd5b82525081516020918201928201910280838360005b838110156100b257818101518382015260200161009a565b50505050905001604052602001805160405193929190846401000000008211156100db57600080fd5b9083019060208201858111156100f057600080fd5b825186602082028301116401000000008211171561010d57600080fd5b82525081516020918201928201910280838360005b8381101561013a578181015183820152602001610122565b50505050905001604052505050805182511461019d576040805162461bcd60e51b815260206004820152601860248201527f436f6e74726f6c6c65723a2077726f6e6720706172616d730000000000000000604482015290519081900360640190fd5b60005b825181101561024d5760006001600160a01b03168282815181106101c057fe5b60200260200101516001600160a01b0316141561020e5760405162461bcd60e51b8152600401808060200182810382526021815260200180610b7c6021913960400191505060405180910390fd5b61024483828151811061021d57fe5b602002602001015183838151811061023157fe5b602002602001015161025560201b60201c565b506001016101a0565b50505061028b565b6001600160a01b03918216600090815260016020819052604090912080546001600160a01b031916929093169190911790915590565b6108e28061029a6000396000f3fe608060405234801561001057600080fd5b50600436106100885760003560e01c806379a83f5a1161005b57806379a83f5a146101675780639e281a9814610193578063c5cc6b6a146101bf578063ebe066b6146101c757610088565b806311c886331461008d5780631a853e9d146100cf5780631d6d0792146101075780635bb4780814610141575b600080fd5b6100b3600480360360208110156100a357600080fd5b50356001600160a01b03166101f5565b604080516001600160a01b039092168252519081900360200190f35b6100f5600480360360208110156100e557600080fd5b50356001600160a01b0316610213565b60408051918252519081900360200190f35b61012d6004803603602081101561011d57600080fd5b50356001600160a01b03166102b4565b604080519115158252519081900360200190f35b61012d6004803603602081101561015757600080fd5b50356001600160a01b03166104ae565b61012d6004803603604081101561017d57600080fd5b506001600160a01b0381351690602001356104ea565b61012d600480360360408110156101a957600080fd5b506001600160a01b038135169060200135610710565b6100b361082f565b61012d600480360360408110156101dd57600080fd5b506001600160a01b038135811691602001351661083e565b6001600160a01b039081166000908152600160205260409020541690565b6001600160a01b0380821660009081526001602090815260408083205481517e8cc262000000000000000000000000000000000000000000000000000000008152306004820152915193941692628cc26292602480840193919291829003018186803b15801561028257600080fd5b505afa158015610296573d6000803e3d6000fd5b505050506040513d60208110156102ac57600080fd5b505192915050565b6001600160a01b038082166000908152600160205260408120549091168061030d5760405162461bcd60e51b815260040180806020018281038252602181526020018061088d6021913960400191505060405180910390fd5b604080517e8cc26200000000000000000000000000000000000000000000000000000000815230600482015290516000916001600160a01b03841691628cc26291602480820192602092909190829003018186803b15801561036e57600080fd5b505afa158015610382573d6000803e3d6000fd5b505050506040513d602081101561039857600080fd5b5051604080517f4641257d00000000000000000000000000000000000000000000000000000000815290519192506001600160a01b03841691634641257d9160048082019260009290919082900301818387803b1580156103f857600080fd5b505af115801561040c573d6000803e3d6000fd5b5050604080517fa9059cbb0000000000000000000000000000000000000000000000000000000081523360048201526024810185905290516001600160a01b038816935063a9059cbb925060448083019260209291908290030181600087803b15801561047857600080fd5b505af115801561048c573d6000803e3d6000fd5b505050506040513d60208110156104a257600080fd5b50600195945050505050565b600080546001600160a01b0383167fffffffffffffffffffffffff00000000000000000000000000000000000000009091161790556001919050565b6001600160a01b038281166000908152600160205260408120549091166105425760405162461bcd60e51b815260040180806020018281038252602181526020018061088d6021913960400191505060405180910390fd5b604080517f23b872dd0000000000000000000000000000000000000000000000000000000081523360048201523060248201526044810184905290516001600160a01b038516916323b872dd9160648083019260209291908290030181600087803b1580156105b057600080fd5b505af11580156105c4573d6000803e3d6000fd5b505050506040513d60208110156105da57600080fd5b50506001600160a01b0380841660008181526001602090815260408083205481517f095ea7b3000000000000000000000000000000000000000000000000000000008152951660048601526024850187905251929363095ea7b39360448083019491928390030190829087803b15801561065357600080fd5b505af1158015610667573d6000803e3d6000fd5b505050506040513d602081101561067d57600080fd5b50506001600160a01b038084166000908152600160205260408082205481517f7547c7a3000000000000000000000000000000000000000000000000000000008152600481018790529151931692637547c7a39260248084019391929182900301818387803b1580156106ef57600080fd5b505af1158015610703573d6000803e3d6000fd5b5060019695505050505050565b6001600160a01b03808316600090815260016020526040812054909116806107695760405162461bcd60e51b815260040180806020018281038252602181526020018061088d6021913960400191505060405180910390fd5b806001600160a01b0316632e1a7d4d846040518263ffffffff1660e01b815260040180828152602001915050600060405180830381600087803b1580156107af57600080fd5b505af11580156107c3573d6000803e3d6000fd5b5050604080517fa9059cbb0000000000000000000000000000000000000000000000000000000081523360048201526024810187905290516001600160a01b038816935063a9059cbb925060448083019260209291908290030181600087803b15801561047857600080fd5b6000546001600160a01b031681565b6001600160a01b03918216600090815260016020819052604090912080547fffffffffffffffffffffffff00000000000000000000000000000000000000001692909316919091179091559056fe436f6e74726f6c6c65723a2077726f6e67207374616b696e672061646472657373a265627a7a72315820c13c18d0eeb8895f01f204b8bcb24dd0b26e9d7ec2dc0a60fb90aaf8ca517aa564736f6c63430005100032436f6e74726f6c6c65723a2077726f6e67207374616b696e672061646472657373",
  "linkReferences": {},
  "deployedLinkReferences": {}
}