{
  "_format": "hh-sol-artifact-1",
  "contractName": "mockFactory",
  "sourceName": "contracts/core/mock/mockFactory.sol",
  "abi": [
    {
      "constant": true,
      "inputs": [],
      "name": "getPairBytecode",
      "outputs": [
        {
          "internalType": "bytes",
          "name": "",
          "type": "bytes"
        }
      ],
      "payable": false,
      "stateMutability": "pure",
      "type": "function"
    }
  ],
  "bytecode": "0x608060405234801561001057600080fd5b506136aa806100206000396000f3fe608060405234801561001057600080fd5b506004361061002b5760003560e01c80634738e2b914610030575b600080fd5b6100386100ad565b6040805160208082528351818301528351919283929083019185019080838360005b8381101561007257818101518382015260200161005a565b50505050905090810190601f16801561009f5780820380516001836020036101000a031916815260200191505b509250505060405180910390f35b606080604051806020016100c0906100f7565b7fffffffffffffffffffffffffffffffffffffffffffffffffffffffffffffffe082820381018352601f9091011660405291505090565b613571806101058339019056fe6080604052600580546001600160701b03191662030d401790556001600f5534801561002a57600080fd5b50604051469080605261351f8239604080519182900360520182208282018252600a8352692ab734b9bbb0b8102b1960b11b6020938401528151808301835260018152603160f81b908401528151808401919091527fbfcc8ef98ffbf7b6c3fec7bf5185b566b9863e35a9d83acd49ad6824b5969738818301527fc89efdaa54c0f20c7adf612882df0950f5a951637e0307cdcb4c672f298b8bc6606082015260808101949094523060a0808601919091528151808603909101815260c09094019052825192019190912060035550600780546001600160a01b031916331790556134058061011a6000396000f3fe608060405234801561001057600080fd5b506004361061020b5760003560e01c806370a082311161012a578063ba9a7a56116100bd578063d21220a71161008c578063d505accf11610071578063d505accf1461061a578063dd62ed3e1461066b578063fff6cae9146106995761020b565b8063d21220a71461060a578063d41afa4c146106125761020b565b8063ba9a7a561461059c578063bc25cf77146105a4578063c0c53b8b146105ca578063c45a0155146106025761020b565b806395d89b41116100f957806395d89b411461053c578063a9059cbb14610544578063aaf5eb6814610570578063b2496691146105945761020b565b806370a08231146104a95780637464fc3d146104cf5780637ecebe00146104d757806389afcb44146104fd5761020b565b806330faefcc116101a25780635a34928e116101715780635a34928e146104455780635a3d54931461044d578063606cbf56146104555780636a627842146104835761020b565b806330faefcc1461040f578063313ce567146104175780633644e515146104355780635909c0d51461043d5761020b565b80630dfe1681116101de5780630dfe16811461039357806318160ddd146103b757806323b872dd146103d157806330adf81f146104075761020b565b8063022c0d9f1461021057806306fdde031461029e5780630902f1ac1461031b578063095ea7b314610353575b600080fd5b61029c6004803603608081101561022657600080fd5b8135916020810135916001600160a01b03604083013516919081019060808101606082013564010000000081111561025d57600080fd5b82018360208201111561026f57600080fd5b8035906020019184600183028401116401000000008311171561029157600080fd5b5090925090506106a1565b005b6102a6610e45565b6040805160208082528351818301528351919283929083019185019080838360005b838110156102e05781810151838201526020016102c8565b50505050905090810190601f16801561030d5780820380516001836020036101000a031916815260200191505b509250505060405180910390f35b610323610e7e565b604080516001600160701b03948516815292909316602083015263ffffffff168183015290519081900360600190f35b61037f6004803603604081101561036957600080fd5b506001600160a01b038135169060200135610eb3565b604080519115158252519081900360200190f35b61039b610eca565b604080516001600160a01b039092168252519081900360200190f35b6103bf610ed9565b60408051918252519081900360200190f35b61037f600480360360608110156103e757600080fd5b506001600160a01b03813581169160208101359091169060400135610edf565b6103bf610f97565b610323610fbb565b61041f611009565b6040805160ff9092168252519081900360200190f35b6103bf61100e565b6103bf611014565b61029c61101a565b6103bf6112dc565b61045d6112e2565b604080516001600160701b03938416815291909216602082015281519081900390910190f35b6103bf6004803603602081101561049957600080fd5b50356001600160a01b0316611308565b6103bf600480360360208110156104bf57600080fd5b50356001600160a01b031661163b565b6103bf61164d565b6103bf600480360360208110156104ed57600080fd5b50356001600160a01b0316611653565b6105236004803603602081101561051357600080fd5b50356001600160a01b0316611665565b6040805192835260208301919091528051918290030190f35b6102a6611c6f565b61037f6004803603604081101561055a57600080fd5b506001600160a01b038135169060200135611ca8565b610578611cb5565b604080516001600160701b039092168252519081900360200190f35b61039b611cbc565b6103bf611ccb565b61029c600480360360208110156105ba57600080fd5b50356001600160a01b0316611cd1565b61029c600480360360608110156105e057600080fd5b506001600160a01b038135811691602081013582169160409091013516611e47565b61039b611efd565b61039b611f0c565b610578611f1b565b61029c600480360360e081101561063057600080fd5b506001600160a01b03813581169160208101359091169060408101359060608101359060ff6080820135169060a08101359060c00135611f2a565b6103bf6004803603604081101561068157600080fd5b506001600160a01b0381358116916020013516612152565b61029c61216f565b600f546001146106ec576040805162461bcd60e51b8152602060048201526011602482015270155b9a5cddd85c158c8e881313d0d2d151607a1b604482015290519081900360640190fd5b6000600f55841515806106ff5750600084115b61073a5760405162461bcd60e51b81526004018080602001828103825260258152602001806132e86025913960400191505060405180910390fd5b6107426132cd565b61074a6132cd565b6107526132cd565b60008061075d610fbb565b509150915089826001600160701b0316101561085457600b546001600160701b039081168301168a106107c15760405162461bcd60e51b81526004018080602001828103825260288152602001806133a96028913960400191505060405180910390fd5b6001600160701b0382168a03808452600654600854604080516313c5035360e31b81526001600160a01b039283166004820152602481019490945251911691639e281a989160448083019260209291908290030181600087803b15801561082757600080fd5b505af115801561083b573d6000803e3d6000fd5b505050506040513d602081101561085157600080fd5b50505b88816001600160701b0316101561095a57600b546001600160701b036e010000000000000000000000000000909104811682011689106108c55760405162461bcd60e51b81526004018080602001828103825260288152602001806133816028913960400191505060405180910390fd5b6001600160701b03811689036020808501829052600654600954604080516313c5035360e31b81526001600160a01b039283166004820152602481019590955251911692639e281a989260448083019391928290030181600087803b15801561092d57600080fd5b505af1158015610941573d6000803e3d6000fd5b505050506040513d602081101561095757600080fd5b50505b891561097757600854610977906001600160a01b0316898c6121ca565b881561099457600954610994906001600160a01b0316898b6121ca565b8515610a4f57876001600160a01b03166310d1e85c338c8c8b8b6040518663ffffffff1660e01b815260040180866001600160a01b03166001600160a01b03168152602001858152602001848152602001806020018281038252848482818152602001925080828437600081840152601f19601f8201169050808301925050509650505050505050600060405180830381600087803b158015610a3657600080fd5b505af1158015610a4a573d6000803e3d6000fd5b505050505b600854604080516370a0823160e01b815230600482015290516001600160a01b03909216916370a0823191602480820192602092909190829003018186803b158015610a9a57600080fd5b505afa158015610aae573d6000803e3d6000fd5b505050506040513d6020811015610ac457600080fd5b50518552600954604080516370a0823160e01b815230600482015290516001600160a01b03909216916370a0823191602480820192602092909190829003018186803b158015610b1357600080fd5b505afa158015610b27573d6000803e3d6000fd5b505050506040513d6020811015610b3d57600080fd5b5051602086015282518a90610b62906001600160701b0385169063ffffffff6123e416565b03856000015111610b74576000610b9a565b82518a90610b92906001600160701b0385169063ffffffff6123e416565b038560000151035b845260208301518990610bbd906001600160701b0384169063ffffffff6123e416565b03856020015111610bcf576000610bf8565b88610bf08460200151836001600160701b03166123e490919063ffffffff16565b038560200151035b60208501528351151580610c10575060008460200151115b610c4b5760405162461bcd60e51b815260040180806020018281038252602481526020018061330d6024913960400191505060405180910390fd5b5050600080610c58610e7e565b5091509150600080610c686112e2565b865189516020808a0151908c01518b5195975093955090860191909103929184010390600090610cca90610ca390600363ffffffff61243c16565b610cbe6001600160701b0386166103e863ffffffff61243c16565b9063ffffffff6124a816565b90506000610ce9610ca360038c6020015161243c90919063ffffffff16565b9050610d1a620f4240610d0e6001600160701b038b8116908b1663ffffffff61243c16565b9063ffffffff61243c16565b610d2a838363ffffffff61243c16565b1015610d7d576040805162461bcd60e51b815260206004820152600c60248201527f556e697377617056323a204b0000000000000000000000000000000000000000604482015290519081900360640190fd5b5050505050505050600080610d906112e2565b91509150600080610d9f610e7e565b5091509150610dda8560000151856001600160701b0316896000015101038660200151856001600160701b03168a6020015101038484612500565b5050835160208086015160408051938452918301528181018c9052606082018b9052516001600160a01b038a1693503392507fd78ad95fa46c994b6551d0da85fc275fe613ce37657fb8d5e3d130840159d8229181900360800190a350506001600f55505050505050565b6040518060400160405280600a81526020017f556e69737761702056320000000000000000000000000000000000000000000081525081565b600080600080600080610e8f610fbb565b925092509250600080610ea06112e2565b9501989390940196509094509092505050565b6000610ec0338484612d87565b5060015b92915050565b6008546001600160a01b031681565b60005481565b6001600160a01b03831660009081526002602090815260408083203384529091528120547fffffffffffffffffffffffffffffffffffffffffffffffffffffffffffffffff14610f82576001600160a01b0384166000908152600260209081526040808320338452909152902054610f5d908363ffffffff6124a816565b6001600160a01b03851660009081526002602090815260408083203384529091529020555b610f8d848484612de9565b5060019392505050565b7f6e71edae12b1b97f4d1f60370fef10105fa2faae0126114a169c64845d6126c981565b600a546001600160701b03808216926e0100000000000000000000000000008304909116917c0100000000000000000000000000000000000000000000000000000000900463ffffffff1690565b601281565b60035481565b600c5481565b600f54600114611065576040805162461bcd60e51b8152602060048201526011602482015270155b9a5cddd85c158c8e881313d0d2d151607a1b604482015290519081900360640190fd5b6000600f819055600654600854604080517f1d6d07920000000000000000000000000000000000000000000000000000000081526001600160a01b03928316600482015290519190921692631d6d079292602480820193602093909283900390910190829087803b1580156110d957600080fd5b505af11580156110ed573d6000803e3d6000fd5b505050506040513d602081101561110357600080fd5b5050600654600954604080517f1d6d07920000000000000000000000000000000000000000000000000000000081526001600160a01b03928316600482015290519190921691631d6d07929160248083019260209291908290030181600087803b15801561117057600080fd5b505af1158015611184573d6000803e3d6000fd5b505050506040513d602081101561119a57600080fd5b5060009050806111a8610e7e565b50915091506000806111b86112e2565b600854604080516370a0823160e01b815230600482015290519395509193506112d1926001600160701b038616926001600160a01b03909216916370a08231916024808301926020929190829003018186803b15801561121757600080fd5b505afa15801561122b573d6000803e3d6000fd5b505050506040513d602081101561124157600080fd5b5051600954604080516370a0823160e01b8152306004820152905193909201926001600160701b038616926001600160a01b03909216916370a08231916024808301926020929190829003018186803b15801561129d57600080fd5b505afa1580156112b1573d6000803e3d6000fd5b505050506040513d60208110156112c757600080fd5b5051018686612500565b50506001600f555050565b600d5481565b600b546001600160701b03808216926e0100000000000000000000000000009092041690565b6000600f54600114611355576040805162461bcd60e51b8152602060048201526011602482015270155b9a5cddd85c158c8e881313d0d2d151607a1b604482015290519081900360640190fd5b6000600f81905580611365610fbb565b5091509150600080611375610e7e565b50600854604080516370a0823160e01b815230600482015290519395509193506000926001600160a01b03909116916370a08231916024808301926020929190829003018186803b1580156113c957600080fd5b505afa1580156113dd573d6000803e3d6000fd5b505050506040513d60208110156113f357600080fd5b5051600954604080516370a0823160e01b815230600482015290519293506000926001600160a01b03909216916370a0823191602480820192602092909190829003018186803b15801561144657600080fd5b505afa15801561145a573d6000803e3d6000fd5b505050506040513d602081101561147057600080fd5b50519050600061148f836001600160701b03891663ffffffff6124a816565b905060006114ac836001600160701b03891663ffffffff6124a816565b905060006114ba8787612ea3565b600054909150806114f7576114e36103e8610cbe6114de878763ffffffff61243c16565b613001565b9a506114f260006103e8613053565b611546565b6115436001600160701b038916611514868463ffffffff61243c16565b8161151b57fe5b046001600160701b038916611536868563ffffffff61243c16565b8161153d57fe5b046130e9565b9a505b60008b116115855760405162461bcd60e51b81526004018080602001828103825260288152602001806133596028913960400191505060405180910390fd5b61158f8c8c613053565b60008061159a6112e2565b915091506115c0826001600160701b03168901826001600160701b031689018c8c612500565b83156115ea576115e66001600160701b038381168a01908316890163ffffffff61243c16565b600e555b6040805187815260208101879052815133927f4c209b5fc8ad50758f13e2e1088ba56a560dff690a1c6fef26394f4c03821c4f928290030190a250506001600f5550989a9950505050505050505050565b60016020526000908152604090205481565b600e5481565b60046020526000908152604090205481565b600080600f546001146116b3576040805162461bcd60e51b8152602060048201526011602482015270155b9a5cddd85c158c8e881313d0d2d151607a1b604482015290519081900360640190fd5b6000600f819055806116c3610fbb565b50600854604080516370a0823160e01b815230600482015290519395509193506000926001600160a01b03909116916370a08231916024808301926020929190829003018186803b15801561171757600080fd5b505afa15801561172b573d6000803e3d6000fd5b505050506040513d602081101561174157600080fd5b5051600954604080516370a0823160e01b815230600482015290519293506000926001600160a01b03909216916370a0823191602480820192602092909190829003018186803b15801561179457600080fd5b505afa1580156117a8573d6000803e3d6000fd5b505050506040513d60208110156117be57600080fd5b505130600090815260016020526040812054919250806117dc610e7e565b509150915060006117ed8383612ea3565b90506000806117fa6112e2565b60005491935091508061182c61181f8b6001600160701b03871663ffffffff6123e416565b899063ffffffff61243c16565b8161183357fe5b049c508061185361181f8a6001600160701b03861663ffffffff6123e416565b8161185a57fe5b049b5060008d11801561186d575060008c115b8015611890575061188d896001600160701b03851663ffffffff6123e416565b8d105b80156118b357506118b0886001600160701b03841663ffffffff6123e416565b8c105b6118ee5760405162461bcd60e51b81526004018080602001828103825260288152602001806133316028913960400191505060405180910390fd5b5050506000808b8a6001600160701b031610156119ca57896001600160701b03168c039150600660009054906101000a90046001600160a01b03166001600160a01b0316639e281a98600860009054906101000a90046001600160a01b0316846040518363ffffffff1660e01b815260040180836001600160a01b03166001600160a01b0316815260200182815260200192505050602060405180830381600087803b15801561199d57600080fd5b505af11580156119b1573d6000803e3d6000fd5b505050506040513d60208110156119c757600080fd5b50505b8a896001600160701b03161015611a705750600654600954604080516313c5035360e31b81526001600160a01b0392831660048201526001600160701b038c168e0360248201819052915191939290921691639e281a989160448083019260209291908290030181600087803b158015611a4357600080fd5b505af1158015611a57573d6000803e3d6000fd5b505050506040513d6020811015611a6d57600080fd5b50505b611a7a3087613101565b600854611a91906001600160a01b03168e8e6121ca565b600954611aa8906001600160a01b03168e8d6121ca565b600080611ab36112e2565b600854604080516370a0823160e01b815230600482015290519395509193506001600160a01b0316916370a0823191602480820192602092909190829003018186803b158015611b0257600080fd5b505afa158015611b16573d6000803e3d6000fd5b505050506040513d6020811015611b2c57600080fd5b5051600954604080516370a0823160e01b81523060048201529051929c506001600160a01b03909116916370a0823191602480820192602092909190829003018186803b158015611b7c57600080fd5b505afa158015611b90573d6000803e3d6000fd5b505050506040513d6020811015611ba657600080fd5b50519850611bcc6001600160701b038084168c018690039083168b018590038989612500565b8415611c0357611bff83826001600160701b03168b010385846001600160701b03168d010361243c90919063ffffffff16565b600e555b50508c6001600160a01b0316336001600160a01b03167fdccd412f0b1252819cb1fd330b93224ca42612892bb3f4f789976e6d819364968e8e604051808381526020018281526020019250505060405180910390a3505050505050505050506001600f81905550915091565b6040518060400160405280600681526020017f554e492d5632000000000000000000000000000000000000000000000000000081525081565b6000610ec0338484612de9565b620f424081565b6006546001600160a01b031681565b6103e881565b600f54600114611d1c576040805162461bcd60e51b8152602060048201526011602482015270155b9a5cddd85c158c8e881313d0d2d151607a1b604482015290519081900360640190fd5b6000600f55600854600954600a54604080516370a0823160e01b815230600482015290516001600160a01b039485169490931692611dcb9285928792611dc6926001600160701b03169185916370a0823191602480820192602092909190829003018186803b158015611d8e57600080fd5b505afa158015611da2573d6000803e3d6000fd5b505050506040513d6020811015611db857600080fd5b50519063ffffffff6124a816565b6121ca565b600a54604080516370a0823160e01b81523060048201529051611e3d9284928792611dc6926e01000000000000000000000000000090046001600160701b0316916001600160a01b038616916370a0823191602480820192602092909190829003018186803b158015611d8e57600080fd5b50506001600f5550565b6007546001600160a01b03163314611ea6576040805162461bcd60e51b815260206004820152601460248201527f556e697377617056323a20464f5242494444454e000000000000000000000000604482015290519081900360640190fd5b600880546001600160a01b039485167fffffffffffffffffffffffff000000000000000000000000000000000000000091821617909155600980549385169382169390931790925560068054919093169116179055565b6007546001600160a01b031681565b6009546001600160a01b031681565b6005546001600160701b031681565b42841015611f7f576040805162461bcd60e51b815260206004820152601260248201527f556e697377617056323a20455850495245440000000000000000000000000000604482015290519081900360640190fd5b6003546001600160a01b0380891660008181526004602090815260408083208054600180820190925582517f6e71edae12b1b97f4d1f60370fef10105fa2faae0126114a169c64845d6126c98186015280840196909652958d166060860152608085018c905260a085019590955260c08085018b90528151808603909101815260e0850182528051908301207f19010000000000000000000000000000000000000000000000000000000000006101008601526101028501969096526101228085019690965280518085039096018652610142840180825286519683019690962095839052610162840180825286905260ff89166101828501526101a284018890526101c28401879052519193926101e280820193601f1981019281900390910190855afa1580156120b5573d6000803e3d6000fd5b5050604051601f1901519150506001600160a01b038116158015906120eb5750886001600160a01b0316816001600160a01b0316145b61213c576040805162461bcd60e51b815260206004820152601c60248201527f556e697377617056323a20494e56414c49445f5349474e415455524500000000604482015290519081900360640190fd5b612147898989612d87565b505050505050505050565b600260209081526000928352604080842090915290825290205481565b600f546001146121ba576040805162461bcd60e51b8152602060048201526011602482015270155b9a5cddd85c158c8e881313d0d2d151607a1b604482015290519081900360640190fd5b6000600f819055806111a8610e7e565b826001600160a01b0316826001600160a01b03161415612231576040805162461bcd60e51b815260206004820152601560248201527f556e697377617056323a20494e56414c49445f544f0000000000000000000000604482015290519081900360640190fd5b604080518082018252601981527f7472616e7366657228616464726573732c75696e74323536290000000000000060209182015281516001600160a01b0385811660248301526044808301869052845180840390910181526064909201845291810180516001600160e01b03167fa9059cbb000000000000000000000000000000000000000000000000000000001781529251815160009460609489169392918291908083835b602083106122f75780518252601f1990920191602091820191016122d8565b6001836020036101000a0380198251168184511680821785525050505050509050019150506000604051808303816000865af19150503d8060008114612359576040519150601f19603f3d011682016040523d82523d6000602084013e61235e565b606091505b509150915081801561238c57508051158061238c575080806020019051602081101561238957600080fd5b50515b6123dd576040805162461bcd60e51b815260206004820152601a60248201527f556e697377617056323a205452414e534645525f4641494c4544000000000000604482015290519081900360640190fd5b5050505050565b80820182811015610ec4576040805162461bcd60e51b815260206004820152601460248201527f64732d6d6174682d6164642d6f766572666c6f77000000000000000000000000604482015290519081900360640190fd5b60008115806124575750508082028282828161245457fe5b04145b610ec4576040805162461bcd60e51b815260206004820152601460248201527f64732d6d6174682d6d756c2d6f766572666c6f77000000000000000000000000604482015290519081900360640190fd5b80820382811115610ec4576040805162461bcd60e51b815260206004820152601560248201527f64732d6d6174682d7375622d756e646572666c6f770000000000000000000000604482015290519081900360640190fd5b600854604080516370a0823160e01b815230600482015290516000926001600160a01b0316916370a08231916024808301926020929190829003018186803b15801561254b57600080fd5b505afa15801561255f573d6000803e3d6000fd5b505050506040513d602081101561257557600080fd5b5051600954604080516370a0823160e01b815230600482015290519293506000926001600160a01b03909216916370a0823191602480820192602092909190829003018186803b1580156125c857600080fd5b505afa1580156125dc573d6000803e3d6000fd5b505050506040513d60208110156125f257600080fd5b505190506001600160701b03821180159061261457506001600160701b038111155b801561262757506001600160701b038611155b801561263a57506001600160701b038511155b61268b576040805162461bcd60e51b815260206004820152601360248201527f556e697377617056323a204f564552464c4f5700000000000000000000000000604482015290519081900360640190fd5b600854600954600a546001600160a01b03928316929091169063ffffffff428116917c0100000000000000000000000000000000000000000000000000000000900481168203908116158015906126ea57506001600160701b03881615155b80156126fe57506001600160701b03871615155b1561276f578063ffffffff1661272c896127178a61319f565b6001600160e01b03169063ffffffff6131bc16565b600c80546001600160e01b03929092169290920201905563ffffffff8116612757886127178b61319f565b600d80546001600160e01b0392909216929092020190555b600554620f42406001600160701b039182168c8102831682900492908c028116919091049082168811156129305760408051808201909152600d81527f61637469766550617274303a20000000000000000000000000000000000000006020820152828903906127e8906001600160701b0383166131e1565b600654604080517f095ea7b30000000000000000000000000000000000000000000000000000000081526001600160a01b0392831660048201526001600160701b038416602482015290519189169163095ea7b3916044808201926020929091908290030181600087803b15801561285f57600080fd5b505af1158015612873573d6000803e3d6000fd5b505050506040513d602081101561288957600080fd5b5050600654604080517f79a83f5a0000000000000000000000000000000000000000000000000000000081526001600160a01b038a811660048301526001600160701b0385166024830152915191909216916379a83f5a9160448083019260209291908290030181600087803b15801561290257600080fd5b505af1158015612916573d6000803e3d6000fd5b505050506040513d602081101561292c57600080fd5b5050505b86816001600160701b03161015612a8d57600654604080517f095ea7b30000000000000000000000000000000000000000000000000000000081526001600160a01b039283166004820152838a036001600160701b03811660248301529151919288169163095ea7b3916044808201926020929091908290030181600087803b1580156129bc57600080fd5b505af11580156129d0573d6000803e3d6000fd5b505050506040513d60208110156129e657600080fd5b5050600654604080517f79a83f5a0000000000000000000000000000000000000000000000000000000081526001600160a01b0389811660048301526001600160701b0385166024830152915191909216916379a83f5a9160448083019260209291908290030181600087803b158015612a5f57600080fd5b505af1158015612a73573d6000803e3d6000fd5b505050506040513d6020811015612a8957600080fd5b5050505b87826001600160701b03161115612b2d57600654604080516313c5035360e31b81526001600160a01b0389811660048301528b86036001600160701b0381166024840152925192931691639e281a98916044808201926020929091908290030181600087803b158015612aff57600080fd5b505af1158015612b13573d6000803e3d6000fd5b505050506040513d6020811015612b2957600080fd5b5050505b86816001600160701b03161115612bcd57600654604080516313c5035360e31b81526001600160a01b0388811660048301528a85036001600160701b0381166024840152925192931691639e281a98916044808201926020929091908290030181600087803b158015612b9f57600080fd5b505af1158015612bb3573d6000803e3d6000fd5b505050506040513d6020811015612bc957600080fd5b5050505b81600a60006101000a8154816001600160701b0302191690836001600160701b0316021790555080600a600e6101000a8154816001600160701b0302191690836001600160701b03160217905550818c03600b60006101000a8154816001600160701b0302191690836001600160701b03160217905550808b03600b600e6101000a8154816001600160701b0302191690836001600160701b0316021790555083600a601c6101000a81548163ffffffff021916908363ffffffff1602179055507f90cf11c015dfdfdf83f1b0ed5d27ebcd2839050639a62928e181005c315248d6600a60009054906101000a90046001600160701b0316600a600e9054906101000a90046001600160701b0316600b60009054906101000a90046001600160701b0316600b600e9054906101000a90046001600160701b031660405180856001600160701b03166001600160701b03168152602001846001600160701b03166001600160701b03168152602001836001600160701b03166001600160701b03168152602001826001600160701b03166001600160701b0316815260200194505050505060405180910390a1505050505050505050505050565b6001600160a01b03808416600081815260026020908152604080832094871680845294825291829020859055815185815291517f8c5be1e5ebec7d5bd14f71427d1e84f3dd0314c0f7b2291e5b200ac8c7c3b9259281900390910190a3505050565b6001600160a01b038316600090815260016020526040902054612e12908263ffffffff6124a816565b6001600160a01b038085166000908152600160205260408082209390935590841681522054612e47908263ffffffff6123e416565b6001600160a01b0380841660008181526001602090815260409182902094909455805185815290519193928716927fddf252ad1be2c89b69c2b068fc378daa952ba7f163c4a11628f55a4df523b3ef92918290030190a3505050565b600080600760009054906101000a90046001600160a01b03166001600160a01b031663017e7e586040518163ffffffff1660e01b815260040160206040518083038186803b158015612ef457600080fd5b505afa158015612f08573d6000803e3d6000fd5b505050506040513d6020811015612f1e57600080fd5b5051600e546001600160a01b038216158015945091925090612fed578015612fe8576000612f616114de6001600160701b0388811690881663ffffffff61243c16565b90506000612f6e83613001565b905080821115612fe5576000612f9c612f8d848463ffffffff6124a816565b6000549063ffffffff61243c16565b90506000612fc183612fb586600563ffffffff61243c16565b9063ffffffff6123e416565b90506000818381612fce57fe5b0490508015612fe157612fe18782613053565b5050505b50505b612ff9565b8015612ff9576000600e555b505092915050565b60006003821115613044575080600160028204015b8181101561303e5780915060028182858161302d57fe5b04018161303657fe5b049050613016565b5061304e565b811561304e575060015b919050565b600054613066908263ffffffff6123e416565b60009081556001600160a01b038316815260016020526040902054613091908263ffffffff6123e416565b6001600160a01b03831660008181526001602090815260408083209490945583518581529351929391927fddf252ad1be2c89b69c2b068fc378daa952ba7f163c4a11628f55a4df523b3ef9281900390910190a35050565b60008183106130f857816130fa565b825b9392505050565b6001600160a01b03821660009081526001602052604090205461312a908263ffffffff6124a816565b6001600160a01b03831660009081526001602052604081209190915554613157908263ffffffff6124a816565b60009081556040805183815290516001600160a01b038516917fddf252ad1be2c89b69c2b068fc378daa952ba7f163c4a11628f55a4df523b3ef919081900360200190a35050565b6001600160701b03166e0100000000000000000000000000000290565b60006001600160701b0382166001600160e01b038416816131d957fe5b049392505050565b6132a882826040516024018080602001838152602001828103825284818151815260200191508051906020019080838360005b8381101561322c578181015183820152602001613214565b50505050905090810190601f1680156132595780820380516001836020036101000a031916815260200191505b5060408051601f198184030181529190526020810180516001600160e01b03167fb60e72cc0000000000000000000000000000000000000000000000000000000017905293506132ac92505050565b5050565b80516a636f6e736f6c652e6c6f67602083016000808483855afa5050505050565b60405180604001604052806000815260200160008152509056fe556e697377617056323a20494e53554646494349454e545f4f55545055545f414d4f554e54556e697377617056323a20494e53554646494349454e545f494e5055545f414d4f554e54556e697377617056323a20494e53554646494349454e545f4c49515549444954595f4255524e4544556e697377617056323a20494e53554646494349454e545f4c49515549444954595f4d494e544544556e697377617056323a20494e53554646494349454e545f4c49515549444954595f544f4b454e31556e697377617056323a20494e53554646494349454e545f4c49515549444954595f544f4b454e30a265627a7a72315820e54b72ea5bd912ab0a2ce1e4ccbd264662c6d2499b7644263503394cac66cd2464736f6c63430005100032454950373132446f6d61696e28737472696e67206e616d652c737472696e672076657273696f6e2c75696e7432353620636861696e49642c6164647265737320766572696679696e67436f6e747261637429a265627a7a723158200c5ebae4c75d729ec3945bf692008d51804a3d151baa3088e15c4b251795900264736f6c63430005100032",
  "linkReferences": {},
  "deployedLinkReferences": {}
}