{"contracts/periphery/test/Staking.sol":{"Staking":{"abi":[{"inputs":[{"internalType":"address","name":"rewardToken","type":"address"},{"internalType":"address","name":"stackingToken","type":"address"},{"internalType":"uint256","name":"startsAt","type":"uint256"},{"internalType":"uint256","name":"durationInBlocks","type":"uint256"},{"internalType":"uint256","name":"lpLockTime","type":"uint256"},{"internalType":"uint256","name":"stakersLimit","type":"uint256"},{"internalType":"uint256","name":"maxStakePerStaker","type":"uint256"},{"internalType":"uint256","name":"lpTotalLimit","type":"uint256"},{"internalType":"uint256","name":"rewardsPerBlock","type":"uint256"}],"stateMutability":"nonpayable","type":"constructor"},{"anonymous":false,"inputs":[{"indexed":true,"internalType":"bool","name":"value","type":"bool"},{"indexed":false,"internalType":"address","name":"operator","type":"address"}],"name":"ActiveSet","type":"event"},{"anonymous":false,"inputs":[{"indexed":true,"internalType":"address","name":"stakerAddress","type":"address"},{"indexed":false,"internalType":"bool","name":"payHarvest","type":"bool"},{"indexed":true,"internalType":"address","name":"operator","type":"address"}],"name":"EmergencyWithdrawals","type":"event"},{"anonymous":false,"inputs":[{"indexed":false,"internalType":"uint256","name":"amount","type":"uint256"},{"indexed":true,"internalType":"address","name":"operator","type":"address"}],"name":"Harvested","type":"event"},{"anonymous":false,"inputs":[{"indexed":false,"internalType":"uint256","name":"newMaxStakePerStaker","type":"uint256"},{"indexed":true,"internalType":"address","name":"operator","type":"address"}],"name":"MaxStakePerStakerSet","type":"event"},{"anonymous":false,"inputs":[{"indexed":true,"internalType":"address","name":"previousOwner","type":"address"},{"indexed":true,"internalType":"address","name":"newOwner","type":"address"}],"name":"OwnershipTransferred","type":"event"},{"anonymous":false,"inputs":[{"indexed":true,"internalType":"uint256","name":"newRewardPerBlock","type":"uint256"},{"indexed":true,"internalType":"address","name":"operator","type":"address"}],"name":"RewardPerBlockSet","type":"event"},{"anonymous":false,"inputs":[{"indexed":true,"internalType":"address","name":"tokenAddress","type":"address"},{"indexed":false,"internalType":"uint256","name":"amount","type":"uint256"},{"indexed":true,"internalType":"address","name":"operator","type":"address"}],"name":"RewardsDeposited","type":"event"},{"anonymous":false,"inputs":[{"indexed":false,"internalType":"address","name":"rewardToken","type":"address"},{"indexed":false,"internalType":"address","name":"stackingToken","type":"address"},{"indexed":false,"internalType":"uint256","name":"startsAt","type":"uint256"},{"indexed":false,"internalType":"uint256","name":"lpLockTime","type":"uint256"},{"indexed":false,"internalType":"uint256","name":"lpTotalLimit","type":"uint256"},{"indexed":false,"internalType":"uint256","name":"stakersLimit","type":"uint256"},{"indexed":false,"internalType":"uint256","name":"maxStakePerStaker","type":"uint256"},{"indexed":false,"internalType":"uint256","name":"rewardsPerBlock","type":"uint256"},{"indexed":false,"internalType":"uint256","name":"durationInBlocks","type":"uint256"}],"name":"StakeCreated","type":"event"},{"anonymous":false,"inputs":[{"indexed":false,"internalType":"uint256","name":"startsAt","type":"uint256"},{"indexed":false,"internalType":"uint256","name":"blocksDuration","type":"uint256"},{"indexed":false,"internalType":"uint256","name":"lpLockTime","type":"uint256"},{"indexed":false,"internalType":"uint256","name":"stakersLimit","type":"uint256"},{"indexed":false,"internalType":"uint256","name":"maxStakePerStaker","type":"uint256"},{"indexed":true,"internalType":"uint256","name":"newRewardPerBlock","type":"uint256"},{"indexed":true,"internalType":"address","name":"operator","type":"address"}],"name":"StakeUpdated","type":"event"},{"anonymous":false,"inputs":[{"indexed":false,"internalType":"uint256","name":"amount","type":"uint256"},{"indexed":true,"internalType":"address","name":"operator","type":"address"}],"name":"TokenWithdrawed","type":"event"},{"anonymous":false,"inputs":[{"indexed":false,"internalType":"uint256","name":"amount","type":"uint256"},{"indexed":true,"internalType":"address","name":"operator","type":"address"}],"name":"TokensStaked","type":"event"},{"anonymous":false,"inputs":[{"indexed":false,"internalType":"uint256","name":"amount","type":"uint256"},{"indexed":true,"internalType":"address","name":"operator","type":"address"}],"name":"Withdrawed","type":"event"},{"inputs":[],"name":"BLOCKS_IN_YEAR","outputs":[{"internalType":"uint256","name":"","type":"uint256"}],"stateMutability":"view","type":"function"},{"inputs":[{"internalType":"address","name":"stakerAddress","type":"address"}],"name":"earned","outputs":[{"internalType":"uint256","name":"","type":"uint256"}],"stateMutability":"view","type":"function"},{"inputs":[{"internalType":"address","name":"stakerAddress","type":"address"},{"internalType":"bool","name":"payHarvest","type":"bool"}],"name":"emergencyWithdrawal","outputs":[],"stateMutability":"nonpayable","type":"function"},{"inputs":[],"name":"getStakeConditionsInfo","outputs":[{"internalType":"uint256","name":"","type":"uint256"},{"internalType":"uint256","name":"","type":"uint256"},{"internalType":"uint256","name":"","type":"uint256"},{"internalType":"uint256","name":"","type":"uint256"},{"internalType":"uint256","name":"","type":"uint256"},{"internalType":"uint256","name":"","type":"uint256"}],"stateMutability":"view","type":"function"},{"inputs":[],"name":"getStakeInfo","outputs":[{"internalType":"uint256","name":"","type":"uint256"},{"internalType":"uint256","name":"","type":"uint256"},{"internalType":"address","name":"","type":"address"},{"internalType":"address","name":"","type":"address"},{"internalType":"uint256","name":"","type":"uint256"},{"internalType":"uint256","name":"","type":"uint256"},{"internalType":"uint256","name":"","type":"uint256"},{"internalType":"uint256","name":"","type":"uint256"},{"internalType":"bool","name":"","type":"bool"}],"stateMutability":"view","type":"function"},{"inputs":[{"internalType":"address","name":"token","type":"address"}],"name":"getTokenBalance","outputs":[{"internalType":"uint256","name":"","type":"uint256"}],"stateMutability":"view","type":"function"},{"inputs":[{"internalType":"address","name":"userAddress","type":"address"}],"name":"getUserInfo","outputs":[{"components":[{"internalType":"address","name":"stakerAddress","type":"address"},{"internalType":"uint256","name":"balance","type":"uint256"},{"internalType":"uint256","name":"rewards","type":"uint256"},{"internalType":"uint256","name":"rewardPerTokenPaid","type":"uint256"},{"internalType":"uint256","name":"startBlock","type":"uint256"},{"internalType":"uint256","name":"startTime","type":"uint256"}],"internalType":"struct Staking.Staker","name":"","type":"tuple"}],"stateMutability":"view","type":"function"},{"inputs":[],"name":"harvest","outputs":[],"stateMutability":"nonpayable","type":"function"},{"inputs":[],"name":"owner","outputs":[{"internalType":"address","name":"","type":"address"}],"stateMutability":"view","type":"function"},{"inputs":[],"name":"renounceOwnership","outputs":[],"stateMutability":"nonpayable","type":"function"},{"inputs":[],"name":"rewardPerToken","outputs":[{"internalType":"uint256","name":"","type":"uint256"}],"stateMutability":"view","type":"function"},{"inputs":[{"internalType":"bool","name":"value","type":"bool"}],"name":"setActive","outputs":[],"stateMutability":"nonpayable","type":"function"},{"inputs":[{"internalType":"uint256","name":"_newRewardPerBlock","type":"uint256"}],"name":"setRewardPerBlock","outputs":[],"stateMutability":"nonpayable","type":"function"},{"inputs":[{"internalType":"uint256","name":"amount","type":"uint256"}],"name":"stakeTokens","outputs":[],"stateMutability":"payable","type":"function"},{"inputs":[{"internalType":"address","name":"newOwner","type":"address"}],"name":"transferOwnership","outputs":[],"stateMutability":"nonpayable","type":"function"},{"inputs":[{"internalType":"uint256","name":"newStartsAt","type":"uint256"},{"internalType":"uint256","name":"newBlocksDuration","type":"uint256"},{"internalType":"uint256","name":"newLpLockTime","type":"uint256"},{"internalType":"uint256","name":"newStakersLimit","type":"uint256"},{"internalType":"uint256","name":"newMaxStakePerStaker","type":"uint256"},{"internalType":"uint256","name":"newRewardPerBlock","type":"uint256"}],"name":"updateStake","outputs":[],"stateMutability":"nonpayable","type":"function"},{"inputs":[{"internalType":"uint256","name":"amount","type":"uint256"}],"name":"withdraw","outputs":[],"stateMutability":"nonpayable","type":"function"},{"inputs":[{"internalType":"address","name":"token","type":"address"},{"internalType":"uint256","name":"amount","type":"uint256"}],"name":"withdrawTokens","outputs":[],"stateMutability":"nonpayable","type":"function"},{"stateMutability":"payable","type":"receive"}],"devdoc":{"methods":{"owner()":{"details":"Returns the address of the current owner."},"renounceOwnership()":{"details":"Leaves the contract without owner. It will not be possible to call `onlyOwner` functions anymore. Can only be called by the current owner.     * NOTE: Renouncing ownership will leave the contract without an owner, thereby removing any functionality that is only available to the owner."},"transferOwnership(address)":{"details":"Transfers ownership of the contract to a new account (`newOwner`). Can only be called by the current owner."}}},"evm":{"bytecode":{"linkReferences":{},"object":"60806040523480156200001157600080fd5b50604051620021bb380380620021bb8339810160408190526200003491620001b7565b6000620000496001600160e01b036200019516565b600080546001600160a01b0319166001600160a01b0383169081178255604051929350917f8be0079c531659141344cd1fd0a4f28419497f9722a3daafe3b4186f6b6457e0908290a3506001808190555088600360006101000a8154816001600160a01b0302191690836001600160a01b0316021790555087600460006101000a8154816001600160a01b0302191690836001600160a01b03160217905550866005819055508543016007819055508460088190555081600b8190555083600c8190555082600d8190555080600e81905550856006819055506001601160006101000a81548160ff0219169083151502179055507f5568e5315553bc68e64dbd9441e17f55c9c1faf3a4773868417bb4e352adadf089898988868989888e6040516200017e9998979695949392919062000234565b60405180910390a150505050505050505062000281565b3390565b80516001600160a01b0381168114620001b157600080fd5b92915050565b60008060008060008060008060006101208a8c031215620001d6578485fd5b620001e28b8b62000199565b9850620001f38b60208c0162000199565b975060408a0151965060608a0151955060808a0151945060a08a0151935060c08a0151925060e08a015191506101008a015190509295985092959850929598565b6001600160a01b03998a16815297909816602088015260408701959095526060860193909352608085019190915260a084015260c083015260e08201526101008101919091526101200190565b611f2a80620002916000396000f3fe60806040526004361061012c5760003560e01c806374a4030f116100a5578063acec338a11610074578063cd3daf9d11610059578063cd3daf9d1461032d578063dd421cd514610342578063f2fde38b1461035757610133565b8063acec338a146102ed578063bb872b4a1461030d57610133565b806374a4030f1461026e5780637547c7a3146102985780638cbf5309146102ab5780638da5cb5b146102cb57610133565b80633aecd0e3116100fc5780634d1f7e65116100e15780634d1f7e65146102055780636386c1c71461022c578063715018a61461025957610133565b80633aecd0e3146101d05780634641257d146101f057610133565b80628cc2621461013857806306b091f91461016e57806321d18adc146101905780632e1a7d4d146101b057610133565b3661013357005b600080fd5b34801561014457600080fd5b5061015861015336600461160e565b610377565b6040516101659190611e16565b60405180910390f35b34801561017a57600080fd5b5061018e610189366004611660565b610429565b005b34801561019c57600080fd5b5061018e6101ab366004611629565b610539565b3480156101bc57600080fd5b5061018e6101cb3660046116c2565b61068b565b3480156101dc57600080fd5b506101586101eb36600461160e565b610750565b3480156101fc57600080fd5b5061018e610803565b34801561021157600080fd5b5061021a6108c1565b60405161016596959493929190611e8f565b34801561023857600080fd5b5061024c61024736600461160e565b6108db565b6040516101659190611dc9565b34801561026557600080fd5b5061018e610947565b34801561027a57600080fd5b506102836109dd565b60405161016599989796959493929190611e1f565b61018e6102a63660046116c2565b610a17565b3480156102b757600080fd5b5061018e6102c63660046116f2565b610ad2565b3480156102d757600080fd5b506102e0610bb9565b6040516101659190611750565b3480156102f957600080fd5b5061018e61030836600461168a565b610bc9565b34801561031957600080fd5b5061018e6103283660046116c2565b610c78565b34801561033957600080fd5b50610158610cfd565b34801561034e57600080fd5b50610158610d6a565b34801561036357600080fd5b5061018e61037236600461160e565b610d71565b60006103816115b2565b506001600160a01b038083166000908152600260208181526040808420815160c08101835281549096168652600181015492860192909252918101549184019190915260038101546060840152600481015460808401526005015460a08301526103e9610cfd565b9050806103fa57604082015161041f565b8160400151670de0b6b3a7640000836060015183038460200151028161041c57fe5b04015b925050505b919050565b600260015414156104555760405162461bcd60e51b815260040161044c90611d92565b60405180910390fd5b6002600155610462610e3e565b6001600160a01b0316610473610bb9565b6001600160a01b0316146104995760405162461bcd60e51b815260040161044c90611b6a565b62201480600754014310156104d6576004546001600160a01b03838116911614156104d65760405162461bcd60e51b815260040161044c906118d0565b6104e86104e1610e3e565b8383610e42565b506104f1610e3e565b6001600160a01b03167f549f2eb667ba04b83e4c67d04bac415b0d7f88ad1fc93a2c42e2be587be13996826040516105299190611e16565b60405180910390a2505060018055565b610541610e3e565b6001600160a01b0316610552610bb9565b6001600160a01b0316146105785760405162461bcd60e51b815260040161044c90611b6a565b6002600154141561059b5760405162461bcd60e51b815260040161044c90611d92565b600260018190556001600160a01b03831660009081526020919091526040902082906105c5610cfd565b600f5560075443106105d9576007546105db565b435b6010556105e782610377565b600280830191909155600f5460038301556001600160a01b03851660009081526020919091526040902083156106205761062081610f2d565b61062e818260010154610fce565b610636610e3e565b6001600160a01b0316856001600160a01b03167fe93fa6a645641a36905340a61cd25d38302a191c89de1b6192165729647f2dbc8660405161067891906117a1565b60405180910390a3505060018055505050565b600260015414156106ae5760405162461bcd60e51b815260040161044c90611d92565b60026001556106bb610e3e565b6001600160a01b03811660009081526002602052604090206106db610cfd565b600f5560075443106106ef576007546106f1565b435b6010556106fd82610377565b600280830191909155600f5460038301556000908161071a610e3e565b6001600160a01b03166001600160a01b0316815260200190815260200160002090506107468185610fce565b5050600180555050565b60006001600160a01b038216610767575047610424565b6040517f70a082310000000000000000000000000000000000000000000000000000000081526001600160a01b038316906370a08231906107ac903090600401611750565b60206040518083038186803b1580156107c457600080fd5b505afa1580156107d8573d6000803e3d6000fd5b505050506040513d601f19601f820116820180604052508101906107fc91906116da565b9050610424565b600260015414156108265760405162461bcd60e51b815260040161044c90611d92565b6002600155610833610e3e565b6001600160a01b0381166000908152600260205260409020610853610cfd565b600f55600754431061086757600754610869565b435b60105561087582610377565b600280830191909155600f5460038301556108b9906000610894610e3e565b6001600160a01b03166001600160a01b03168152602001908152602001600020610f2d565b505060018055565b600854600b54600c54600d54600f54600654909192939495565b6108e36115b2565b506001600160a01b03908116600090815260026020818152604092839020835160c08101855281549095168552600181015491850191909152908101549183019190915260038101546060830152600481015460808301526005015460a082015290565b61094f610e3e565b6001600160a01b0316610960610bb9565b6001600160a01b0316146109865760405162461bcd60e51b815260040161044c90611b6a565b600080546040516001600160a01b03909116907f8be0079c531659141344cd1fd0a4f28419497f9722a3daafe3b4186f6b6457e0908390a36000805473ffffffffffffffffffffffffffffffffffffffff19169055565b600554600754600354600454600a54600954600e546010546011546001600160a01b0396871696959095169460ff16909192939495969798565b60026001541415610a3a5760405162461bcd60e51b815260040161044c90611d92565b6002600155610a47610e3e565b6001600160a01b0381166000908152600260205260409020610a67610cfd565b600f556007544310610a7b57600754610a7d565b435b601055610a8982610377565b600280830191909155600f54600383015560009081610aa6610e3e565b6001600160a01b03166001600160a01b031681526020019081526020016000209050610746818561112b565b610ada610e3e565b6001600160a01b0316610aeb610bb9565b6001600160a01b031614610b115760405162461bcd60e51b815260040161044c90611b6a565b600554421015610b2657600884905560058690555b600554421080610b37575083600854115b15610b425760088490555b4385016007556006859055600c839055600d829055600e819055610b64610e3e565b6001600160a01b0316817fc497fa4a972273f140b9fadcd1c85898a9d668bc469bbeea646138827d2785a8600554886008548888604051610ba9959493929190611e6c565b60405180910390a3505050505050565b6000546001600160a01b03165b90565b610bd1610e3e565b6001600160a01b0316610be2610bb9565b6001600160a01b031614610c085760405162461bcd60e51b815260040161044c90611b6a565b601180547fffffffffffffffffffffffffffffffffffffffffffffffffffffffffffffff00168215159081179091557fd149a575534195e63c1803d2e12c53ab1be7408663633419e980e14690af2686610c60610e3e565b604051610c6d9190611750565b60405180910390a250565b610c80610e3e565b6001600160a01b0316610c91610bb9565b6001600160a01b031614610cb75760405162461bcd60e51b815260040161044c90611b6a565b600e819055610cc4610e3e565b6001600160a01b0316817f2cc57c7e0027bbcbefac66e7afd968de61ed8de2f50fd07f1a4b987ae1d6e99560405160405180910390a350565b601054600754600a546000929190610d1a57600092505050610bc6565b6000814311610d295743610d2b565b815b90506000818410610d3d576000610d41565b8382035b9050600a5481600e5402670de0b6b3a76400000281610d5c57fe5b04600f540194505050505090565b6220148081565b610d79610e3e565b6001600160a01b0316610d8a610bb9565b6001600160a01b031614610db05760405162461bcd60e51b815260040161044c90611b6a565b6001600160a01b038116610dd65760405162461bcd60e51b815260040161044c9061183c565b600080546040516001600160a01b03808516939216917f8be0079c531659141344cd1fd0a4f28419497f9722a3daafe3b4186f6b6457e091a36000805473ffffffffffffffffffffffffffffffffffffffff19166001600160a01b0392909216919091179055565b3390565b600081610e4e84610750565b1015610e6c5760405162461bcd60e51b815260040161044c90611bd6565b6001600160a01b038316610f00576000846001600160a01b031683604051610e9390610bc6565b60006040518083038185875af1925050503d8060008114610ed0576040519150601f19603f3d011682016040523d82523d6000602084013e610ed5565b606091505b5050905080610ef65760405162461bcd60e51b815260040161044c9061192d565b6001915050610f26565b610f22610f0b610e3e565b6001600160a01b038516908463ffffffff61135d16565b5060015b9392505050565b6004810154610f4e5760405162461bcd60e51b815260040161044c906119bf565b60028101548015610f8457600060028301554360048301558154600354610f82916001600160a01b03908116911683610e42565b505b81546040516001600160a01b03909116907fc22257ea55ac36f7b0cd84b3c13bb1b0ec54d708194c434b325188353a523bba90610fc2908490611e16565b60405180910390a25050565b8160010154811115610ff25760405162461bcd60e51b815260040161044c90611899565b600081116110125760405162461bcd60e51b815260040161044c90611962565b61101a610bb9565b6001600160a01b031661102b610e3e565b6001600160a01b03161461106d5760085482600501540142101580611051575060075443115b61106d5760405162461bcd60e51b815260040161044c90611b9f565b600a8054829003905560018201548114156110c457600980547fffffffffffffffffffffffffffffffffffffffffffffffffffffffffffffffff0190556000600483018190556005830181905560018301556110d0565b60018201805482900390555b81546004546110ec916001600160a01b03908116911683610e42565b5081546040516001600160a01b03909116907fa54ce7327877aa2bfe1c079e3bb0da2b7a774fe90a5af3afb74369f940e69c8a90610fc2908490611e16565b6000811161114b5760405162461bcd60e51b815260040161044c90611ab0565b60115460ff1661116d5760405162461bcd60e51b815260040161044c90611cd8565b60055442101561118f5760405162461bcd60e51b815260040161044c906117df565b6007544311156111b15760405162461bcd60e51b815260040161044c90611a53565b600c54156111dc57600c54600954106111dc5760405162461bcd60e51b815260040161044c90611c0d565b600b541561120a57600b5481600a5401111561120a5760405162461bcd60e51b815260040161044c90611c0d565b600d541561123a57600d5481836001015401111561123a5760405162461bcd60e51b815260040161044c90611b0d565b600a805482019055600182018054820190556004546001600160a01b03166112ab578034101561127c5760405162461bcd60e51b815260040161044c90611ca1565b803411156112a6576112a461128f610e3e565b6004546001600160a01b031634849003610e42565b505b6112d0565b6112d06112b6610e3e565b6004546001600160a01b031690308463ffffffff6113e516565b600482015461131f576009805460010190554360048301554260058301556112f6610e3e565b825473ffffffffffffffffffffffffffffffffffffffff19166001600160a01b03919091161782555b81546040516001600160a01b03909116907f9e4d21de6c227900b5b8728d010781c8fc172fcc6c3fe36f7cbf431c85ec780090610fc2908490611e16565b6113e08363a9059cbb60e01b848460405160240161137c929190611788565b60408051601f198184030181529190526020810180517bffffffffffffffffffffffffffffffffffffffffffffffffffffffff167fffffffff000000000000000000000000000000000000000000000000000000009093169290921790915261140c565b505050565b611406846323b872dd60e01b85858560405160240161137c93929190611764565b50505050565b6060611461826040518060400160405280602081526020017f5361666545524332303a206c6f772d6c6576656c2063616c6c206661696c6564815250856001600160a01b031661149b9092919063ffffffff16565b8051909150156113e0578080602001905181019061147f91906116a6565b6113e05760405162461bcd60e51b815260040161044c90611d35565b60606114aa84846000856114b2565b949350505050565b6060824710156114d45760405162461bcd60e51b815260040161044c906119f6565b6114dd85611573565b6114f95760405162461bcd60e51b815260040161044c90611c6a565b60006060866001600160a01b031685876040516115169190611734565b60006040518083038185875af1925050503d8060008114611553576040519150601f19603f3d011682016040523d82523d6000602084013e611558565b606091505b5091509150611568828286611579565b979650505050505050565b3b151590565b60608315611588575081610f26565b8251156115985782518084602001fd5b8160405162461bcd60e51b815260040161044c91906117ac565b6040518060c0016040528060006001600160a01b0316815260200160008152602001600081526020016000815260200160008152602001600081525090565b80356001600160a01b038116811461160857600080fd5b92915050565b60006020828403121561161f578081fd5b610f2683836115f1565b6000806040838503121561163b578081fd5b61164584846115f1565b9150602083013561165581611ee3565b809150509250929050565b60008060408385031215611672578182fd5b61167c84846115f1565b946020939093013593505050565b60006020828403121561169b578081fd5b8135610f2681611ee3565b6000602082840312156116b7578081fd5b8151610f2681611ee3565b6000602082840312156116d3578081fd5b5035919050565b6000602082840312156116eb578081fd5b5051919050565b60008060008060008060c0878903121561170a578182fd5b505084359660208601359650604086013595606081013595506080810135945060a0013592509050565b60008251611746818460208701611eb7565b9190910192915050565b6001600160a01b0391909116815260200190565b6001600160a01b039384168152919092166020820152604081019190915260600190565b6001600160a01b03929092168252602082015260400190565b901515815260200190565b60006020825282518060208401526117cb816040850160208701611eb7565b601f01601f19169190910160400192915050565b60208082526029908201527f5374616b696e673a2054686973207374616b696e6720686173206e6f7420737460408201527f6172746564207965740000000000000000000000000000000000000000000000606082015260800190565b60208082526026908201527f4f776e61626c653a206e6577206f776e657220697320746865207a65726f206160408201527f6464726573730000000000000000000000000000000000000000000000000000606082015260800190565b6020808252600f908201527f457863656564732062616c616e63650000000000000000000000000000000000604082015260600190565b6020808252603a908201527f5374616b696e673a2063616e206e6f7420776974686472617720737461636b6960408201527f6e6720746f6b656e73206265666f7265206c6f636b2074696d65000000000000606082015260800190565b6020808252818101527f47616d655374616b653a206661696c656420746f2073656e6420546f6b656e73604082015260600190565b60208082526021908201527f42616c616e6365206d7573742062652067726561746572207468616e207a657260408201527f6f00000000000000000000000000000000000000000000000000000000000000606082015260800190565b6020808252601d908201527f5374616b696e673a20596f7520617265206e6f742061207374616b6572000000604082015260600190565b60208082526026908201527f416464726573733a20696e73756666696369656e742062616c616e636520666f60408201527f722063616c6c0000000000000000000000000000000000000000000000000000606082015260800190565b60208082526029908201527f5374616b696e673a2054686973207374616b696e672069732063757272656e7460408201527f6c7920636c6f7365640000000000000000000000000000000000000000000000606082015260800190565b60208082526029908201527f5374616b696e673a20416d6f756e74206d75737420626520677265617465722060408201527f7468616e207a65726f0000000000000000000000000000000000000000000000606082015260800190565b60208082526029908201527f5374616b696e673a20596f757220746f74616c207374616b652073697a65206960408201527f7320746f6f206269670000000000000000000000000000000000000000000000606082015260800190565b6020808252818101527f4f776e61626c653a2063616c6c6572206973206e6f7420746865206f776e6572604082015260600190565b6020808252601f908201527f5374616b696e673a20546f6f206561726c7920666f7220776974686472617700604082015260600190565b6020808252601a908201527f5374616b696e673a206e6f7420656e6f75676820746f6b656e73000000000000604082015260600190565b60208082526023908201527f5374616b696e673a2054686973207374616b6520697320616c7265616479206660408201527f756c6c0000000000000000000000000000000000000000000000000000000000606082015260800190565b6020808252601d908201527f416464726573733a2063616c6c20746f206e6f6e2d636f6e7472616374000000604082015260600190565b60208082526015908201527f5374616b696e673a2057726f6e6720616d6f756e740000000000000000000000604082015260600190565b6020808252602c908201527f5374616b696e673a2054686973207374616b6520697320696e6163746976652060408201527f6f72206e6f742065786973740000000000000000000000000000000000000000606082015260800190565b6020808252602a908201527f5361666545524332303a204552433230206f7065726174696f6e20646964206e60408201527f6f74207375636365656400000000000000000000000000000000000000000000606082015260800190565b6020808252601f908201527f5265656e7472616e637947756172643a207265656e7472616e742063616c6c00604082015260600190565b600060c0820190506001600160a01b0383511682526020830151602083015260408301516040830152606083015160608301526080830151608083015260a083015160a083015292915050565b90815260200190565b98895260208901979097526001600160a01b039586166040890152939094166060870152608086019190915260a085015260c084019190915260e083015215156101008201526101200190565b948552602085019390935260408401919091526060830152608082015260a00190565b958652602086019490945260408501929092526060840152608083015260a082015260c00190565b60005b83811015611ed2578181015183820152602001611eba565b838111156114065750506000910152565b8015158114611ef157600080fd5b5056fea264697066735822122009760c5722f7b81435923a4408d04d60177c2373efa930dc67bfd64ace71f89d64736f6c63430006060033","opcodes":"PUSH1 0x80 PUSH1 0x40 MSTORE CALLVALUE DUP1 ISZERO PUSH3 0x11 JUMPI PUSH1 0x0 DUP1 REVERT JUMPDEST POP PUSH1 0x40 MLOAD PUSH3 0x21BB CODESIZE SUB DUP1 PUSH3 0x21BB DUP4 CODECOPY DUP2 ADD PUSH1 0x40 DUP2 SWAP1 MSTORE PUSH3 0x34 SWAP2 PUSH3 0x1B7 JUMP JUMPDEST PUSH1 0x0 PUSH3 0x49 PUSH1 0x1 PUSH1 0x1 PUSH1 0xE0 SHL SUB PUSH3 0x195 AND JUMP JUMPDEST PUSH1 0x0 DUP1 SLOAD PUSH1 0x1 PUSH1 0x1 PUSH1 0xA0 SHL SUB NOT AND PUSH1 0x1 PUSH1 0x1 PUSH1 0xA0 SHL SUB DUP4 AND SWAP1 DUP2 OR DUP3 SSTORE PUSH1 0x40 MLOAD SWAP3 SWAP4 POP SWAP2 PUSH32 0x8BE0079C531659141344CD1FD0A4F28419497F9722A3DAAFE3B4186F6B6457E0 SWAP1 DUP3 SWAP1 LOG3 POP PUSH1 0x1 DUP1 DUP2 SWAP1 SSTORE POP DUP9 PUSH1 0x3 PUSH1 0x0 PUSH2 0x100 EXP DUP2 SLOAD DUP2 PUSH1 0x1 PUSH1 0x1 PUSH1 0xA0 SHL SUB MUL NOT AND SWAP1 DUP4 PUSH1 0x1 PUSH1 0x1 PUSH1 0xA0 SHL SUB AND MUL OR SWAP1 SSTORE POP DUP8 PUSH1 0x4 PUSH1 0x0 PUSH2 0x100 EXP DUP2 SLOAD DUP2 PUSH1 0x1 PUSH1 0x1 PUSH1 0xA0 SHL SUB MUL NOT AND SWAP1 DUP4 PUSH1 0x1 PUSH1 0x1 PUSH1 0xA0 SHL SUB AND MUL OR SWAP1 SSTORE POP DUP7 PUSH1 0x5 DUP2 SWAP1 SSTORE POP DUP6 NUMBER ADD PUSH1 0x7 DUP2 SWAP1 SSTORE POP DUP5 PUSH1 0x8 DUP2 SWAP1 SSTORE POP DUP2 PUSH1 0xB DUP2 SWAP1 SSTORE POP DUP4 PUSH1 0xC DUP2 SWAP1 SSTORE POP DUP3 PUSH1 0xD DUP2 SWAP1 SSTORE POP DUP1 PUSH1 0xE DUP2 SWAP1 SSTORE POP DUP6 PUSH1 0x6 DUP2 SWAP1 SSTORE POP PUSH1 0x1 PUSH1 0x11 PUSH1 0x0 PUSH2 0x100 EXP DUP2 SLOAD DUP2 PUSH1 0xFF MUL NOT AND SWAP1 DUP4 ISZERO ISZERO MUL OR SWAP1 SSTORE POP PUSH32 0x5568E5315553BC68E64DBD9441E17F55C9C1FAF3A4773868417BB4E352ADADF0 DUP10 DUP10 DUP10 DUP9 DUP7 DUP10 DUP10 DUP9 DUP15 PUSH1 0x40 MLOAD PUSH3 0x17E SWAP10 SWAP9 SWAP8 SWAP7 SWAP6 SWAP5 SWAP4 SWAP3 SWAP2 SWAP1 PUSH3 0x234 JUMP JUMPDEST PUSH1 0x40 MLOAD DUP1 SWAP2 SUB SWAP1 LOG1 POP POP POP POP POP POP POP POP POP PUSH3 0x281 JUMP JUMPDEST CALLER SWAP1 JUMP JUMPDEST DUP1 MLOAD PUSH1 0x1 PUSH1 0x1 PUSH1 0xA0 SHL SUB DUP2 AND DUP2 EQ PUSH3 0x1B1 JUMPI PUSH1 0x0 DUP1 REVERT JUMPDEST SWAP3 SWAP2 POP POP JUMP JUMPDEST PUSH1 0x0 DUP1 PUSH1 0x0 DUP1 PUSH1 0x0 DUP1 PUSH1 0x0 DUP1 PUSH1 0x0 PUSH2 0x120 DUP11 DUP13 SUB SLT ISZERO PUSH3 0x1D6 JUMPI DUP5 DUP6 REVERT JUMPDEST PUSH3 0x1E2 DUP12 DUP12 PUSH3 0x199 JUMP JUMPDEST SWAP9 POP PUSH3 0x1F3 DUP12 PUSH1 0x20 DUP13 ADD PUSH3 0x199 JUMP JUMPDEST SWAP8 POP PUSH1 0x40 DUP11 ADD MLOAD SWAP7 POP PUSH1 0x60 DUP11 ADD MLOAD SWAP6 POP PUSH1 0x80 DUP11 ADD MLOAD SWAP5 POP PUSH1 0xA0 DUP11 ADD MLOAD SWAP4 POP PUSH1 0xC0 DUP11 ADD MLOAD SWAP3 POP PUSH1 0xE0 DUP11 ADD MLOAD SWAP2 POP PUSH2 0x100 DUP11 ADD MLOAD SWAP1 POP SWAP3 SWAP6 SWAP9 POP SWAP3 SWAP6 SWAP9 POP SWAP3 SWAP6 SWAP9 JUMP JUMPDEST PUSH1 0x1 PUSH1 0x1 PUSH1 0xA0 SHL SUB SWAP10 DUP11 AND DUP2 MSTORE SWAP8 SWAP1 SWAP9 AND PUSH1 0x20 DUP9 ADD MSTORE PUSH1 0x40 DUP8 ADD SWAP6 SWAP1 SWAP6 MSTORE PUSH1 0x60 DUP7 ADD SWAP4 SWAP1 SWAP4 MSTORE PUSH1 0x80 DUP6 ADD SWAP2 SWAP1 SWAP2 MSTORE PUSH1 0xA0 DUP5 ADD MSTORE PUSH1 0xC0 DUP4 ADD MSTORE PUSH1 0xE0 DUP3 ADD MSTORE PUSH2 0x100 DUP2 ADD SWAP2 SWAP1 SWAP2 MSTORE PUSH2 0x120 ADD SWAP1 JUMP JUMPDEST PUSH2 0x1F2A DUP1 PUSH3 0x291 PUSH1 0x0 CODECOPY PUSH1 0x0 RETURN INVALID PUSH1 0x80 PUSH1 0x40 MSTORE PUSH1 0x4 CALLDATASIZE LT PUSH2 0x12C JUMPI PUSH1 0x0 CALLDATALOAD PUSH1 0xE0 SHR DUP1 PUSH4 0x74A4030F GT PUSH2 0xA5 JUMPI DUP1 PUSH4 0xACEC338A GT PUSH2 0x74 JUMPI DUP1 PUSH4 0xCD3DAF9D GT PUSH2 0x59 JUMPI DUP1 PUSH4 0xCD3DAF9D EQ PUSH2 0x32D JUMPI DUP1 PUSH4 0xDD421CD5 EQ PUSH2 0x342 JUMPI DUP1 PUSH4 0xF2FDE38B EQ PUSH2 0x357 JUMPI PUSH2 0x133 JUMP JUMPDEST DUP1 PUSH4 0xACEC338A EQ PUSH2 0x2ED JUMPI DUP1 PUSH4 0xBB872B4A EQ PUSH2 0x30D JUMPI PUSH2 0x133 JUMP JUMPDEST DUP1 PUSH4 0x74A4030F EQ PUSH2 0x26E JUMPI DUP1 PUSH4 0x7547C7A3 EQ PUSH2 0x298 JUMPI DUP1 PUSH4 0x8CBF5309 EQ PUSH2 0x2AB JUMPI DUP1 PUSH4 0x8DA5CB5B EQ PUSH2 0x2CB JUMPI PUSH2 0x133 JUMP JUMPDEST DUP1 PUSH4 0x3AECD0E3 GT PUSH2 0xFC JUMPI DUP1 PUSH4 0x4D1F7E65 GT PUSH2 0xE1 JUMPI DUP1 PUSH4 0x4D1F7E65 EQ PUSH2 0x205 JUMPI DUP1 PUSH4 0x6386C1C7 EQ PUSH2 0x22C JUMPI DUP1 PUSH4 0x715018A6 EQ PUSH2 0x259 JUMPI PUSH2 0x133 JUMP JUMPDEST DUP1 PUSH4 0x3AECD0E3 EQ PUSH2 0x1D0 JUMPI DUP1 PUSH4 0x4641257D EQ PUSH2 0x1F0 JUMPI PUSH2 0x133 JUMP JUMPDEST DUP1 PUSH3 0x8CC262 EQ PUSH2 0x138 JUMPI DUP1 PUSH4 0x6B091F9 EQ PUSH2 0x16E JUMPI DUP1 PUSH4 0x21D18ADC EQ PUSH2 0x190 JUMPI DUP1 PUSH4 0x2E1A7D4D EQ PUSH2 0x1B0 JUMPI PUSH2 0x133 JUMP JUMPDEST CALLDATASIZE PUSH2 0x133 JUMPI STOP JUMPDEST PUSH1 0x0 DUP1 REVERT JUMPDEST CALLVALUE DUP1 ISZERO PUSH2 0x144 JUMPI PUSH1 0x0 DUP1 REVERT JUMPDEST POP PUSH2 0x158 PUSH2 0x153 CALLDATASIZE PUSH1 0x4 PUSH2 0x160E JUMP JUMPDEST PUSH2 0x377 JUMP JUMPDEST PUSH1 0x40 MLOAD PUSH2 0x165 SWAP2 SWAP1 PUSH2 0x1E16 JUMP JUMPDEST PUSH1 0x40 MLOAD DUP1 SWAP2 SUB SWAP1 RETURN JUMPDEST CALLVALUE DUP1 ISZERO PUSH2 0x17A JUMPI PUSH1 0x0 DUP1 REVERT JUMPDEST POP PUSH2 0x18E PUSH2 0x189 CALLDATASIZE PUSH1 0x4 PUSH2 0x1660 JUMP JUMPDEST PUSH2 0x429 JUMP JUMPDEST STOP JUMPDEST CALLVALUE DUP1 ISZERO PUSH2 0x19C JUMPI PUSH1 0x0 DUP1 REVERT JUMPDEST POP PUSH2 0x18E PUSH2 0x1AB CALLDATASIZE PUSH1 0x4 PUSH2 0x1629 JUMP JUMPDEST PUSH2 0x539 JUMP JUMPDEST CALLVALUE DUP1 ISZERO PUSH2 0x1BC JUMPI PUSH1 0x0 DUP1 REVERT JUMPDEST POP PUSH2 0x18E PUSH2 0x1CB CALLDATASIZE PUSH1 0x4 PUSH2 0x16C2 JUMP JUMPDEST PUSH2 0x68B JUMP JUMPDEST CALLVALUE DUP1 ISZERO PUSH2 0x1DC JUMPI PUSH1 0x0 DUP1 REVERT JUMPDEST POP PUSH2 0x158 PUSH2 0x1EB CALLDATASIZE PUSH1 0x4 PUSH2 0x160E JUMP JUMPDEST PUSH2 0x750 JUMP JUMPDEST CALLVALUE DUP1 ISZERO PUSH2 0x1FC JUMPI PUSH1 0x0 DUP1 REVERT JUMPDEST POP PUSH2 0x18E PUSH2 0x803 JUMP JUMPDEST CALLVALUE DUP1 ISZERO PUSH2 0x211 JUMPI PUSH1 0x0 DUP1 REVERT JUMPDEST POP PUSH2 0x21A PUSH2 0x8C1 JUMP JUMPDEST PUSH1 0x40 MLOAD PUSH2 0x165 SWAP7 SWAP6 SWAP5 SWAP4 SWAP3 SWAP2 SWAP1 PUSH2 0x1E8F JUMP JUMPDEST CALLVALUE DUP1 ISZERO PUSH2 0x238 JUMPI PUSH1 0x0 DUP1 REVERT JUMPDEST POP PUSH2 0x24C PUSH2 0x247 CALLDATASIZE PUSH1 0x4 PUSH2 0x160E JUMP JUMPDEST PUSH2 0x8DB JUMP JUMPDEST PUSH1 0x40 MLOAD PUSH2 0x165 SWAP2 SWAP1 PUSH2 0x1DC9 JUMP JUMPDEST CALLVALUE DUP1 ISZERO PUSH2 0x265 JUMPI PUSH1 0x0 DUP1 REVERT JUMPDEST POP PUSH2 0x18E PUSH2 0x947 JUMP JUMPDEST CALLVALUE DUP1 ISZERO PUSH2 0x27A JUMPI PUSH1 0x0 DUP1 REVERT JUMPDEST POP PUSH2 0x283 PUSH2 0x9DD JUMP JUMPDEST PUSH1 0x40 MLOAD PUSH2 0x165 SWAP10 SWAP9 SWAP8 SWAP7 SWAP6 SWAP5 SWAP4 SWAP3 SWAP2 SWAP1 PUSH2 0x1E1F JUMP JUMPDEST PUSH2 0x18E PUSH2 0x2A6 CALLDATASIZE PUSH1 0x4 PUSH2 0x16C2 JUMP JUMPDEST PUSH2 0xA17 JUMP JUMPDEST CALLVALUE DUP1 ISZERO PUSH2 0x2B7 JUMPI PUSH1 0x0 DUP1 REVERT JUMPDEST POP PUSH2 0x18E PUSH2 0x2C6 CALLDATASIZE PUSH1 0x4 PUSH2 0x16F2 JUMP JUMPDEST PUSH2 0xAD2 JUMP JUMPDEST CALLVALUE DUP1 ISZERO PUSH2 0x2D7 JUMPI PUSH1 0x0 DUP1 REVERT JUMPDEST POP PUSH2 0x2E0 PUSH2 0xBB9 JUMP JUMPDEST PUSH1 0x40 MLOAD PUSH2 0x165 SWAP2 SWAP1 PUSH2 0x1750 JUMP JUMPDEST CALLVALUE DUP1 ISZERO PUSH2 0x2F9 JUMPI PUSH1 0x0 DUP1 REVERT JUMPDEST POP PUSH2 0x18E PUSH2 0x308 CALLDATASIZE PUSH1 0x4 PUSH2 0x168A JUMP JUMPDEST PUSH2 0xBC9 JUMP JUMPDEST CALLVALUE DUP1 ISZERO PUSH2 0x319 JUMPI PUSH1 0x0 DUP1 REVERT JUMPDEST POP PUSH2 0x18E PUSH2 0x328 CALLDATASIZE PUSH1 0x4 PUSH2 0x16C2 JUMP JUMPDEST PUSH2 0xC78 JUMP JUMPDEST CALLVALUE DUP1 ISZERO PUSH2 0x339 JUMPI PUSH1 0x0 DUP1 REVERT JUMPDEST POP PUSH2 0x158 PUSH2 0xCFD JUMP JUMPDEST CALLVALUE DUP1 ISZERO PUSH2 0x34E JUMPI PUSH1 0x0 DUP1 REVERT JUMPDEST POP PUSH2 0x158 PUSH2 0xD6A JUMP JUMPDEST CALLVALUE DUP1 ISZERO PUSH2 0x363 JUMPI PUSH1 0x0 DUP1 REVERT JUMPDEST POP PUSH2 0x18E PUSH2 0x372 CALLDATASIZE PUSH1 0x4 PUSH2 0x160E JUMP JUMPDEST PUSH2 0xD71 JUMP JUMPDEST PUSH1 0x0 PUSH2 0x381 PUSH2 0x15B2 JUMP JUMPDEST POP PUSH1 0x1 PUSH1 0x1 PUSH1 0xA0 SHL SUB DUP1 DUP4 AND PUSH1 0x0 SWAP1 DUP2 MSTORE PUSH1 0x2 PUSH1 0x20 DUP2 DUP2 MSTORE PUSH1 0x40 DUP1 DUP5 KECCAK256 DUP2 MLOAD PUSH1 0xC0 DUP2 ADD DUP4 MSTORE DUP2 SLOAD SWAP1 SWAP7 AND DUP7 MSTORE PUSH1 0x1 DUP2 ADD SLOAD SWAP3 DUP7 ADD SWAP3 SWAP1 SWAP3 MSTORE SWAP2 DUP2 ADD SLOAD SWAP2 DUP5 ADD SWAP2 SWAP1 SWAP2 MSTORE PUSH1 0x3 DUP2 ADD SLOAD PUSH1 0x60 DUP5 ADD MSTORE PUSH1 0x4 DUP2 ADD SLOAD PUSH1 0x80 DUP5 ADD MSTORE PUSH1 0x5 ADD SLOAD PUSH1 0xA0 DUP4 ADD MSTORE PUSH2 0x3E9 PUSH2 0xCFD JUMP JUMPDEST SWAP1 POP DUP1 PUSH2 0x3FA JUMPI PUSH1 0x40 DUP3 ADD MLOAD PUSH2 0x41F JUMP JUMPDEST DUP2 PUSH1 0x40 ADD MLOAD PUSH8 0xDE0B6B3A7640000 DUP4 PUSH1 0x60 ADD MLOAD DUP4 SUB DUP5 PUSH1 0x20 ADD MLOAD MUL DUP2 PUSH2 0x41C JUMPI INVALID JUMPDEST DIV ADD JUMPDEST SWAP3 POP POP POP JUMPDEST SWAP2 SWAP1 POP JUMP JUMPDEST PUSH1 0x2 PUSH1 0x1 SLOAD EQ ISZERO PUSH2 0x455 JUMPI PUSH1 0x40 MLOAD PUSH3 0x461BCD PUSH1 0xE5 SHL DUP2 MSTORE PUSH1 0x4 ADD PUSH2 0x44C SWAP1 PUSH2 0x1D92 JUMP JUMPDEST PUSH1 0x40 MLOAD DUP1 SWAP2 SUB SWAP1 REVERT JUMPDEST PUSH1 0x2 PUSH1 0x1 SSTORE PUSH2 0x462 PUSH2 0xE3E JUMP JUMPDEST PUSH1 0x1 PUSH1 0x1 PUSH1 0xA0 SHL SUB AND PUSH2 0x473 PUSH2 0xBB9 JUMP JUMPDEST PUSH1 0x1 PUSH1 0x1 PUSH1 0xA0 SHL SUB AND EQ PUSH2 0x499 JUMPI PUSH1 0x40 MLOAD PUSH3 0x461BCD PUSH1 0xE5 SHL DUP2 MSTORE PUSH1 0x4 ADD PUSH2 0x44C SWAP1 PUSH2 0x1B6A JUMP JUMPDEST PUSH3 0x201480 PUSH1 0x7 SLOAD ADD NUMBER LT ISZERO PUSH2 0x4D6 JUMPI PUSH1 0x4 SLOAD PUSH1 0x1 PUSH1 0x1 PUSH1 0xA0 SHL SUB DUP4 DUP2 AND SWAP2 AND EQ ISZERO PUSH2 0x4D6 JUMPI PUSH1 0x40 MLOAD PUSH3 0x461BCD PUSH1 0xE5 SHL DUP2 MSTORE PUSH1 0x4 ADD PUSH2 0x44C SWAP1 PUSH2 0x18D0 JUMP JUMPDEST PUSH2 0x4E8 PUSH2 0x4E1 PUSH2 0xE3E JUMP JUMPDEST DUP4 DUP4 PUSH2 0xE42 JUMP JUMPDEST POP PUSH2 0x4F1 PUSH2 0xE3E JUMP JUMPDEST PUSH1 0x1 PUSH1 0x1 PUSH1 0xA0 SHL SUB AND PUSH32 0x549F2EB667BA04B83E4C67D04BAC415B0D7F88AD1FC93A2C42E2BE587BE13996 DUP3 PUSH1 0x40 MLOAD PUSH2 0x529 SWAP2 SWAP1 PUSH2 0x1E16 JUMP JUMPDEST PUSH1 0x40 MLOAD DUP1 SWAP2 SUB SWAP1 LOG2 POP POP PUSH1 0x1 DUP1 SSTORE JUMP JUMPDEST PUSH2 0x541 PUSH2 0xE3E JUMP JUMPDEST PUSH1 0x1 PUSH1 0x1 PUSH1 0xA0 SHL SUB AND PUSH2 0x552 PUSH2 0xBB9 JUMP JUMPDEST PUSH1 0x1 PUSH1 0x1 PUSH1 0xA0 SHL SUB AND EQ PUSH2 0x578 JUMPI PUSH1 0x40 MLOAD PUSH3 0x461BCD PUSH1 0xE5 SHL DUP2 MSTORE PUSH1 0x4 ADD PUSH2 0x44C SWAP1 PUSH2 0x1B6A JUMP JUMPDEST PUSH1 0x2 PUSH1 0x1 SLOAD EQ ISZERO PUSH2 0x59B JUMPI PUSH1 0x40 MLOAD PUSH3 0x461BCD PUSH1 0xE5 SHL DUP2 MSTORE PUSH1 0x4 ADD PUSH2 0x44C SWAP1 PUSH2 0x1D92 JUMP JUMPDEST PUSH1 0x2 PUSH1 0x1 DUP2 SWAP1 SSTORE PUSH1 0x1 PUSH1 0x1 PUSH1 0xA0 SHL SUB DUP4 AND PUSH1 0x0 SWAP1 DUP2 MSTORE PUSH1 0x20 SWAP2 SWAP1 SWAP2 MSTORE PUSH1 0x40 SWAP1 KECCAK256 DUP3 SWAP1 PUSH2 0x5C5 PUSH2 0xCFD JUMP JUMPDEST PUSH1 0xF SSTORE PUSH1 0x7 SLOAD NUMBER LT PUSH2 0x5D9 JUMPI PUSH1 0x7 SLOAD PUSH2 0x5DB JUMP JUMPDEST NUMBER JUMPDEST PUSH1 0x10 SSTORE PUSH2 0x5E7 DUP3 PUSH2 0x377 JUMP JUMPDEST PUSH1 0x2 DUP1 DUP4 ADD SWAP2 SWAP1 SWAP2 SSTORE PUSH1 0xF SLOAD PUSH1 0x3 DUP4 ADD SSTORE PUSH1 0x1 PUSH1 0x1 PUSH1 0xA0 SHL SUB DUP6 AND PUSH1 0x0 SWAP1 DUP2 MSTORE PUSH1 0x20 SWAP2 SWAP1 SWAP2 MSTORE PUSH1 0x40 SWAP1 KECCAK256 DUP4 ISZERO PUSH2 0x620 JUMPI PUSH2 0x620 DUP2 PUSH2 0xF2D JUMP JUMPDEST PUSH2 0x62E DUP2 DUP3 PUSH1 0x1 ADD SLOAD PUSH2 0xFCE JUMP JUMPDEST PUSH2 0x636 PUSH2 0xE3E JUMP JUMPDEST PUSH1 0x1 PUSH1 0x1 PUSH1 0xA0 SHL SUB AND DUP6 PUSH1 0x1 PUSH1 0x1 PUSH1 0xA0 SHL SUB AND PUSH32 0xE93FA6A645641A36905340A61CD25D38302A191C89DE1B6192165729647F2DBC DUP7 PUSH1 0x40 MLOAD PUSH2 0x678 SWAP2 SWAP1 PUSH2 0x17A1 JUMP JUMPDEST PUSH1 0x40 MLOAD DUP1 SWAP2 SUB SWAP1 LOG3 POP POP PUSH1 0x1 DUP1 SSTORE POP POP POP JUMP JUMPDEST PUSH1 0x2 PUSH1 0x1 SLOAD EQ ISZERO PUSH2 0x6AE JUMPI PUSH1 0x40 MLOAD PUSH3 0x461BCD PUSH1 0xE5 SHL DUP2 MSTORE PUSH1 0x4 ADD PUSH2 0x44C SWAP1 PUSH2 0x1D92 JUMP JUMPDEST PUSH1 0x2 PUSH1 0x1 SSTORE PUSH2 0x6BB PUSH2 0xE3E JUMP JUMPDEST PUSH1 0x1 PUSH1 0x1 PUSH1 0xA0 SHL SUB DUP2 AND PUSH1 0x0 SWAP1 DUP2 MSTORE PUSH1 0x2 PUSH1 0x20 MSTORE PUSH1 0x40 SWAP1 KECCAK256 PUSH2 0x6DB PUSH2 0xCFD JUMP JUMPDEST PUSH1 0xF SSTORE PUSH1 0x7 SLOAD NUMBER LT PUSH2 0x6EF JUMPI PUSH1 0x7 SLOAD PUSH2 0x6F1 JUMP JUMPDEST NUMBER JUMPDEST PUSH1 0x10 SSTORE PUSH2 0x6FD DUP3 PUSH2 0x377 JUMP JUMPDEST PUSH1 0x2 DUP1 DUP4 ADD SWAP2 SWAP1 SWAP2 SSTORE PUSH1 0xF SLOAD PUSH1 0x3 DUP4 ADD SSTORE PUSH1 0x0 SWAP1 DUP2 PUSH2 0x71A PUSH2 0xE3E JUMP JUMPDEST PUSH1 0x1 PUSH1 0x1 PUSH1 0xA0 SHL SUB AND PUSH1 0x1 PUSH1 0x1 PUSH1 0xA0 SHL SUB AND DUP2 MSTORE PUSH1 0x20 ADD SWAP1 DUP2 MSTORE PUSH1 0x20 ADD PUSH1 0x0 KECCAK256 SWAP1 POP PUSH2 0x746 DUP2 DUP6 PUSH2 0xFCE JUMP JUMPDEST POP POP PUSH1 0x1 DUP1 SSTORE POP POP JUMP JUMPDEST PUSH1 0x0 PUSH1 0x1 PUSH1 0x1 PUSH1 0xA0 SHL SUB DUP3 AND PUSH2 0x767 JUMPI POP SELFBALANCE PUSH2 0x424 JUMP JUMPDEST PUSH1 0x40 MLOAD PUSH32 0x70A0823100000000000000000000000000000000000000000000000000000000 DUP2 MSTORE PUSH1 0x1 PUSH1 0x1 PUSH1 0xA0 SHL SUB DUP4 AND SWAP1 PUSH4 0x70A08231 SWAP1 PUSH2 0x7AC SWAP1 ADDRESS SWAP1 PUSH1 0x4 ADD PUSH2 0x1750 JUMP JUMPDEST PUSH1 0x20 PUSH1 0x40 MLOAD DUP1 DUP4 SUB DUP2 DUP7 DUP1 EXTCODESIZE ISZERO DUP1 ISZERO PUSH2 0x7C4 JUMPI PUSH1 0x0 DUP1 REVERT JUMPDEST POP GAS STATICCALL ISZERO DUP1 ISZERO PUSH2 0x7D8 JUMPI RETURNDATASIZE PUSH1 0x0 DUP1 RETURNDATACOPY RETURNDATASIZE PUSH1 0x0 REVERT JUMPDEST POP POP POP POP PUSH1 0x40 MLOAD RETURNDATASIZE PUSH1 0x1F NOT PUSH1 0x1F DUP3 ADD AND DUP3 ADD DUP1 PUSH1 0x40 MSTORE POP DUP2 ADD SWAP1 PUSH2 0x7FC SWAP2 SWAP1 PUSH2 0x16DA JUMP JUMPDEST SWAP1 POP PUSH2 0x424 JUMP JUMPDEST PUSH1 0x2 PUSH1 0x1 SLOAD EQ ISZERO PUSH2 0x826 JUMPI PUSH1 0x40 MLOAD PUSH3 0x461BCD PUSH1 0xE5 SHL DUP2 MSTORE PUSH1 0x4 ADD PUSH2 0x44C SWAP1 PUSH2 0x1D92 JUMP JUMPDEST PUSH1 0x2 PUSH1 0x1 SSTORE PUSH2 0x833 PUSH2 0xE3E JUMP JUMPDEST PUSH1 0x1 PUSH1 0x1 PUSH1 0xA0 SHL SUB DUP2 AND PUSH1 0x0 SWAP1 DUP2 MSTORE PUSH1 0x2 PUSH1 0x20 MSTORE PUSH1 0x40 SWAP1 KECCAK256 PUSH2 0x853 PUSH2 0xCFD JUMP JUMPDEST PUSH1 0xF SSTORE PUSH1 0x7 SLOAD NUMBER LT PUSH2 0x867 JUMPI PUSH1 0x7 SLOAD PUSH2 0x869 JUMP JUMPDEST NUMBER JUMPDEST PUSH1 0x10 SSTORE PUSH2 0x875 DUP3 PUSH2 0x377 JUMP JUMPDEST PUSH1 0x2 DUP1 DUP4 ADD SWAP2 SWAP1 SWAP2 SSTORE PUSH1 0xF SLOAD PUSH1 0x3 DUP4 ADD SSTORE PUSH2 0x8B9 SWAP1 PUSH1 0x0 PUSH2 0x894 PUSH2 0xE3E JUMP JUMPDEST PUSH1 0x1 PUSH1 0x1 PUSH1 0xA0 SHL SUB AND PUSH1 0x1 PUSH1 0x1 PUSH1 0xA0 SHL SUB AND DUP2 MSTORE PUSH1 0x20 ADD SWAP1 DUP2 MSTORE PUSH1 0x20 ADD PUSH1 0x0 KECCAK256 PUSH2 0xF2D JUMP JUMPDEST POP POP PUSH1 0x1 DUP1 SSTORE JUMP JUMPDEST PUSH1 0x8 SLOAD PUSH1 0xB SLOAD PUSH1 0xC SLOAD PUSH1 0xD SLOAD PUSH1 0xF SLOAD PUSH1 0x6 SLOAD SWAP1 SWAP2 SWAP3 SWAP4 SWAP5 SWAP6 JUMP JUMPDEST PUSH2 0x8E3 PUSH2 0x15B2 JUMP JUMPDEST POP PUSH1 0x1 PUSH1 0x1 PUSH1 0xA0 SHL SUB SWAP1 DUP2 AND PUSH1 0x0 SWAP1 DUP2 MSTORE PUSH1 0x2 PUSH1 0x20 DUP2 DUP2 MSTORE PUSH1 0x40 SWAP3 DUP4 SWAP1 KECCAK256 DUP4 MLOAD PUSH1 0xC0 DUP2 ADD DUP6 MSTORE DUP2 SLOAD SWAP1 SWAP6 AND DUP6 MSTORE PUSH1 0x1 DUP2 ADD SLOAD SWAP2 DUP6 ADD SWAP2 SWAP1 SWAP2 MSTORE SWAP1 DUP2 ADD SLOAD SWAP2 DUP4 ADD SWAP2 SWAP1 SWAP2 MSTORE PUSH1 0x3 DUP2 ADD SLOAD PUSH1 0x60 DUP4 ADD MSTORE PUSH1 0x4 DUP2 ADD SLOAD PUSH1 0x80 DUP4 ADD MSTORE PUSH1 0x5 ADD SLOAD PUSH1 0xA0 DUP3 ADD MSTORE SWAP1 JUMP JUMPDEST PUSH2 0x94F PUSH2 0xE3E JUMP JUMPDEST PUSH1 0x1 PUSH1 0x1 PUSH1 0xA0 SHL SUB AND PUSH2 0x960 PUSH2 0xBB9 JUMP JUMPDEST PUSH1 0x1 PUSH1 0x1 PUSH1 0xA0 SHL SUB AND EQ PUSH2 0x986 JUMPI PUSH1 0x40 MLOAD PUSH3 0x461BCD PUSH1 0xE5 SHL DUP2 MSTORE PUSH1 0x4 ADD PUSH2 0x44C SWAP1 PUSH2 0x1B6A JUMP JUMPDEST PUSH1 0x0 DUP1 SLOAD PUSH1 0x40 MLOAD PUSH1 0x1 PUSH1 0x1 PUSH1 0xA0 SHL SUB SWAP1 SWAP2 AND SWAP1 PUSH32 0x8BE0079C531659141344CD1FD0A4F28419497F9722A3DAAFE3B4186F6B6457E0 SWAP1 DUP4 SWAP1 LOG3 PUSH1 0x0 DUP1 SLOAD PUSH20 0xFFFFFFFFFFFFFFFFFFFFFFFFFFFFFFFFFFFFFFFF NOT AND SWAP1 SSTORE JUMP JUMPDEST PUSH1 0x5 SLOAD PUSH1 0x7 SLOAD PUSH1 0x3 SLOAD PUSH1 0x4 SLOAD PUSH1 0xA SLOAD PUSH1 0x9 SLOAD PUSH1 0xE SLOAD PUSH1 0x10 SLOAD PUSH1 0x11 SLOAD PUSH1 0x1 PUSH1 0x1 PUSH1 0xA0 SHL SUB SWAP7 DUP8 AND SWAP7 SWAP6 SWAP1 SWAP6 AND SWAP5 PUSH1 0xFF AND SWAP1 SWAP2 SWAP3 SWAP4 SWAP5 SWAP6 SWAP7 SWAP8 SWAP9 JUMP JUMPDEST PUSH1 0x2 PUSH1 0x1 SLOAD EQ ISZERO PUSH2 0xA3A JUMPI PUSH1 0x40 MLOAD PUSH3 0x461BCD PUSH1 0xE5 SHL DUP2 MSTORE PUSH1 0x4 ADD PUSH2 0x44C SWAP1 PUSH2 0x1D92 JUMP JUMPDEST PUSH1 0x2 PUSH1 0x1 SSTORE PUSH2 0xA47 PUSH2 0xE3E JUMP JUMPDEST PUSH1 0x1 PUSH1 0x1 PUSH1 0xA0 SHL SUB DUP2 AND PUSH1 0x0 SWAP1 DUP2 MSTORE PUSH1 0x2 PUSH1 0x20 MSTORE PUSH1 0x40 SWAP1 KECCAK256 PUSH2 0xA67 PUSH2 0xCFD JUMP JUMPDEST PUSH1 0xF SSTORE PUSH1 0x7 SLOAD NUMBER LT PUSH2 0xA7B JUMPI PUSH1 0x7 SLOAD PUSH2 0xA7D JUMP JUMPDEST NUMBER JUMPDEST PUSH1 0x10 SSTORE PUSH2 0xA89 DUP3 PUSH2 0x377 JUMP JUMPDEST PUSH1 0x2 DUP1 DUP4 ADD SWAP2 SWAP1 SWAP2 SSTORE PUSH1 0xF SLOAD PUSH1 0x3 DUP4 ADD SSTORE PUSH1 0x0 SWAP1 DUP2 PUSH2 0xAA6 PUSH2 0xE3E JUMP JUMPDEST PUSH1 0x1 PUSH1 0x1 PUSH1 0xA0 SHL SUB AND PUSH1 0x1 PUSH1 0x1 PUSH1 0xA0 SHL SUB AND DUP2 MSTORE PUSH1 0x20 ADD SWAP1 DUP2 MSTORE PUSH1 0x20 ADD PUSH1 0x0 KECCAK256 SWAP1 POP PUSH2 0x746 DUP2 DUP6 PUSH2 0x112B JUMP JUMPDEST PUSH2 0xADA PUSH2 0xE3E JUMP JUMPDEST PUSH1 0x1 PUSH1 0x1 PUSH1 0xA0 SHL SUB AND PUSH2 0xAEB PUSH2 0xBB9 JUMP JUMPDEST PUSH1 0x1 PUSH1 0x1 PUSH1 0xA0 SHL SUB AND EQ PUSH2 0xB11 JUMPI PUSH1 0x40 MLOAD PUSH3 0x461BCD PUSH1 0xE5 SHL DUP2 MSTORE PUSH1 0x4 ADD PUSH2 0x44C SWAP1 PUSH2 0x1B6A JUMP JUMPDEST PUSH1 0x5 SLOAD TIMESTAMP LT ISZERO PUSH2 0xB26 JUMPI PUSH1 0x8 DUP5 SWAP1 SSTORE PUSH1 0x5 DUP7 SWAP1 SSTORE JUMPDEST PUSH1 0x5 SLOAD TIMESTAMP LT DUP1 PUSH2 0xB37 JUMPI POP DUP4 PUSH1 0x8 SLOAD GT JUMPDEST ISZERO PUSH2 0xB42 JUMPI PUSH1 0x8 DUP5 SWAP1 SSTORE JUMPDEST NUMBER DUP6 ADD PUSH1 0x7 SSTORE PUSH1 0x6 DUP6 SWAP1 SSTORE PUSH1 0xC DUP4 SWAP1 SSTORE PUSH1 0xD DUP3 SWAP1 SSTORE PUSH1 0xE DUP2 SWAP1 SSTORE PUSH2 0xB64 PUSH2 0xE3E JUMP JUMPDEST PUSH1 0x1 PUSH1 0x1 PUSH1 0xA0 SHL SUB AND DUP2 PUSH32 0xC497FA4A972273F140B9FADCD1C85898A9D668BC469BBEEA646138827D2785A8 PUSH1 0x5 SLOAD DUP9 PUSH1 0x8 SLOAD DUP9 DUP9 PUSH1 0x40 MLOAD PUSH2 0xBA9 SWAP6 SWAP5 SWAP4 SWAP3 SWAP2 SWAP1 PUSH2 0x1E6C JUMP JUMPDEST PUSH1 0x40 MLOAD DUP1 SWAP2 SUB SWAP1 LOG3 POP POP POP POP POP POP JUMP JUMPDEST PUSH1 0x0 SLOAD PUSH1 0x1 PUSH1 0x1 PUSH1 0xA0 SHL SUB AND JUMPDEST SWAP1 JUMP JUMPDEST PUSH2 0xBD1 PUSH2 0xE3E JUMP JUMPDEST PUSH1 0x1 PUSH1 0x1 PUSH1 0xA0 SHL SUB AND PUSH2 0xBE2 PUSH2 0xBB9 JUMP JUMPDEST PUSH1 0x1 PUSH1 0x1 PUSH1 0xA0 SHL SUB AND EQ PUSH2 0xC08 JUMPI PUSH1 0x40 MLOAD PUSH3 0x461BCD PUSH1 0xE5 SHL DUP2 MSTORE PUSH1 0x4 ADD PUSH2 0x44C SWAP1 PUSH2 0x1B6A JUMP JUMPDEST PUSH1 0x11 DUP1 SLOAD PUSH32 0xFFFFFFFFFFFFFFFFFFFFFFFFFFFFFFFFFFFFFFFFFFFFFFFFFFFFFFFFFFFFFF00 AND DUP3 ISZERO ISZERO SWAP1 DUP2 OR SWAP1 SWAP2 SSTORE PUSH32 0xD149A575534195E63C1803D2E12C53AB1BE7408663633419E980E14690AF2686 PUSH2 0xC60 PUSH2 0xE3E JUMP JUMPDEST PUSH1 0x40 MLOAD PUSH2 0xC6D SWAP2 SWAP1 PUSH2 0x1750 JUMP JUMPDEST PUSH1 0x40 MLOAD DUP1 SWAP2 SUB SWAP1 LOG2 POP JUMP JUMPDEST PUSH2 0xC80 PUSH2 0xE3E JUMP JUMPDEST PUSH1 0x1 PUSH1 0x1 PUSH1 0xA0 SHL SUB AND PUSH2 0xC91 PUSH2 0xBB9 JUMP JUMPDEST PUSH1 0x1 PUSH1 0x1 PUSH1 0xA0 SHL SUB AND EQ PUSH2 0xCB7 JUMPI PUSH1 0x40 MLOAD PUSH3 0x461BCD PUSH1 0xE5 SHL DUP2 MSTORE PUSH1 0x4 ADD PUSH2 0x44C SWAP1 PUSH2 0x1B6A JUMP JUMPDEST PUSH1 0xE DUP2 SWAP1 SSTORE PUSH2 0xCC4 PUSH2 0xE3E JUMP JUMPDEST PUSH1 0x1 PUSH1 0x1 PUSH1 0xA0 SHL SUB AND DUP2 PUSH32 0x2CC57C7E0027BBCBEFAC66E7AFD968DE61ED8DE2F50FD07F1A4B987AE1D6E995 PUSH1 0x40 MLOAD PUSH1 0x40 MLOAD DUP1 SWAP2 SUB SWAP1 LOG3 POP JUMP JUMPDEST PUSH1 0x10 SLOAD PUSH1 0x7 SLOAD PUSH1 0xA SLOAD PUSH1 0x0 SWAP3 SWAP2 SWAP1 PUSH2 0xD1A JUMPI PUSH1 0x0 SWAP3 POP POP POP PUSH2 0xBC6 JUMP JUMPDEST PUSH1 0x0 DUP2 NUMBER GT PUSH2 0xD29 JUMPI NUMBER PUSH2 0xD2B JUMP JUMPDEST DUP2 JUMPDEST SWAP1 POP PUSH1 0x0 DUP2 DUP5 LT PUSH2 0xD3D JUMPI PUSH1 0x0 PUSH2 0xD41 JUMP JUMPDEST DUP4 DUP3 SUB JUMPDEST SWAP1 POP PUSH1 0xA SLOAD DUP2 PUSH1 0xE SLOAD MUL PUSH8 0xDE0B6B3A7640000 MUL DUP2 PUSH2 0xD5C JUMPI INVALID JUMPDEST DIV PUSH1 0xF SLOAD ADD SWAP5 POP POP POP POP POP SWAP1 JUMP JUMPDEST PUSH3 0x201480 DUP2 JUMP JUMPDEST PUSH2 0xD79 PUSH2 0xE3E JUMP JUMPDEST PUSH1 0x1 PUSH1 0x1 PUSH1 0xA0 SHL SUB AND PUSH2 0xD8A PUSH2 0xBB9 JUMP JUMPDEST PUSH1 0x1 PUSH1 0x1 PUSH1 0xA0 SHL SUB AND EQ PUSH2 0xDB0 JUMPI PUSH1 0x40 MLOAD PUSH3 0x461BCD PUSH1 0xE5 SHL DUP2 MSTORE PUSH1 0x4 ADD PUSH2 0x44C SWAP1 PUSH2 0x1B6A JUMP JUMPDEST PUSH1 0x1 PUSH1 0x1 PUSH1 0xA0 SHL SUB DUP2 AND PUSH2 0xDD6 JUMPI PUSH1 0x40 MLOAD PUSH3 0x461BCD PUSH1 0xE5 SHL DUP2 MSTORE PUSH1 0x4 ADD PUSH2 0x44C SWAP1 PUSH2 0x183C JUMP JUMPDEST PUSH1 0x0 DUP1 SLOAD PUSH1 0x40 MLOAD PUSH1 0x1 PUSH1 0x1 PUSH1 0xA0 SHL SUB DUP1 DUP6 AND SWAP4 SWAP3 AND SWAP2 PUSH32 0x8BE0079C531659141344CD1FD0A4F28419497F9722A3DAAFE3B4186F6B6457E0 SWAP2 LOG3 PUSH1 0x0 DUP1 SLOAD PUSH20 0xFFFFFFFFFFFFFFFFFFFFFFFFFFFFFFFFFFFFFFFF NOT AND PUSH1 0x1 PUSH1 0x1 PUSH1 0xA0 SHL SUB SWAP3 SWAP1 SWAP3 AND SWAP2 SWAP1 SWAP2 OR SWAP1 SSTORE JUMP JUMPDEST CALLER SWAP1 JUMP JUMPDEST PUSH1 0x0 DUP2 PUSH2 0xE4E DUP5 PUSH2 0x750 JUMP JUMPDEST LT ISZERO PUSH2 0xE6C JUMPI PUSH1 0x40 MLOAD PUSH3 0x461BCD PUSH1 0xE5 SHL DUP2 MSTORE PUSH1 0x4 ADD PUSH2 0x44C SWAP1 PUSH2 0x1BD6 JUMP JUMPDEST PUSH1 0x1 PUSH1 0x1 PUSH1 0xA0 SHL SUB DUP4 AND PUSH2 0xF00 JUMPI PUSH1 0x0 DUP5 PUSH1 0x1 PUSH1 0x1 PUSH1 0xA0 SHL SUB AND DUP4 PUSH1 0x40 MLOAD PUSH2 0xE93 SWAP1 PUSH2 0xBC6 JUMP JUMPDEST PUSH1 0x0 PUSH1 0x40 MLOAD DUP1 DUP4 SUB DUP2 DUP6 DUP8 GAS CALL SWAP3 POP POP POP RETURNDATASIZE DUP1 PUSH1 0x0 DUP2 EQ PUSH2 0xED0 JUMPI PUSH1 0x40 MLOAD SWAP2 POP PUSH1 0x1F NOT PUSH1 0x3F RETURNDATASIZE ADD AND DUP3 ADD PUSH1 0x40 MSTORE RETURNDATASIZE DUP3 MSTORE RETURNDATASIZE PUSH1 0x0 PUSH1 0x20 DUP5 ADD RETURNDATACOPY PUSH2 0xED5 JUMP JUMPDEST PUSH1 0x60 SWAP2 POP JUMPDEST POP POP SWAP1 POP DUP1 PUSH2 0xEF6 JUMPI PUSH1 0x40 MLOAD PUSH3 0x461BCD PUSH1 0xE5 SHL DUP2 MSTORE PUSH1 0x4 ADD PUSH2 0x44C SWAP1 PUSH2 0x192D JUMP JUMPDEST PUSH1 0x1 SWAP2 POP POP PUSH2 0xF26 JUMP JUMPDEST PUSH2 0xF22 PUSH2 0xF0B PUSH2 0xE3E JUMP JUMPDEST PUSH1 0x1 PUSH1 0x1 PUSH1 0xA0 SHL SUB DUP6 AND SWAP1 DUP5 PUSH4 0xFFFFFFFF PUSH2 0x135D AND JUMP JUMPDEST POP PUSH1 0x1 JUMPDEST SWAP4 SWAP3 POP POP POP JUMP JUMPDEST PUSH1 0x4 DUP2 ADD SLOAD PUSH2 0xF4E JUMPI PUSH1 0x40 MLOAD PUSH3 0x461BCD PUSH1 0xE5 SHL DUP2 MSTORE PUSH1 0x4 ADD PUSH2 0x44C SWAP1 PUSH2 0x19BF JUMP JUMPDEST PUSH1 0x2 DUP2 ADD SLOAD DUP1 ISZERO PUSH2 0xF84 JUMPI PUSH1 0x0 PUSH1 0x2 DUP4 ADD SSTORE NUMBER PUSH1 0x4 DUP4 ADD SSTORE DUP2 SLOAD PUSH1 0x3 SLOAD PUSH2 0xF82 SWAP2 PUSH1 0x1 PUSH1 0x1 PUSH1 0xA0 SHL SUB SWAP1 DUP2 AND SWAP2 AND DUP4 PUSH2 0xE42 JUMP JUMPDEST POP JUMPDEST DUP2 SLOAD PUSH1 0x40 MLOAD PUSH1 0x1 PUSH1 0x1 PUSH1 0xA0 SHL SUB SWAP1 SWAP2 AND SWAP1 PUSH32 0xC22257EA55AC36F7B0CD84B3C13BB1B0EC54D708194C434B325188353A523BBA SWAP1 PUSH2 0xFC2 SWAP1 DUP5 SWAP1 PUSH2 0x1E16 JUMP JUMPDEST PUSH1 0x40 MLOAD DUP1 SWAP2 SUB SWAP1 LOG2 POP POP JUMP JUMPDEST DUP2 PUSH1 0x1 ADD SLOAD DUP2 GT ISZERO PUSH2 0xFF2 JUMPI PUSH1 0x40 MLOAD PUSH3 0x461BCD PUSH1 0xE5 SHL DUP2 MSTORE PUSH1 0x4 ADD PUSH2 0x44C SWAP1 PUSH2 0x1899 JUMP JUMPDEST PUSH1 0x0 DUP2 GT PUSH2 0x1012 JUMPI PUSH1 0x40 MLOAD PUSH3 0x461BCD PUSH1 0xE5 SHL DUP2 MSTORE PUSH1 0x4 ADD PUSH2 0x44C SWAP1 PUSH2 0x1962 JUMP JUMPDEST PUSH2 0x101A PUSH2 0xBB9 JUMP JUMPDEST PUSH1 0x1 PUSH1 0x1 PUSH1 0xA0 SHL SUB AND PUSH2 0x102B PUSH2 0xE3E JUMP JUMPDEST PUSH1 0x1 PUSH1 0x1 PUSH1 0xA0 SHL SUB AND EQ PUSH2 0x106D JUMPI PUSH1 0x8 SLOAD DUP3 PUSH1 0x5 ADD SLOAD ADD TIMESTAMP LT ISZERO DUP1 PUSH2 0x1051 JUMPI POP PUSH1 0x7 SLOAD NUMBER GT JUMPDEST PUSH2 0x106D JUMPI PUSH1 0x40 MLOAD PUSH3 0x461BCD PUSH1 0xE5 SHL DUP2 MSTORE PUSH1 0x4 ADD PUSH2 0x44C SWAP1 PUSH2 0x1B9F JUMP JUMPDEST PUSH1 0xA DUP1 SLOAD DUP3 SWAP1 SUB SWAP1 SSTORE PUSH1 0x1 DUP3 ADD SLOAD DUP2 EQ ISZERO PUSH2 0x10C4 JUMPI PUSH1 0x9 DUP1 SLOAD PUSH32 0xFFFFFFFFFFFFFFFFFFFFFFFFFFFFFFFFFFFFFFFFFFFFFFFFFFFFFFFFFFFFFFFF ADD SWAP1 SSTORE PUSH1 0x0 PUSH1 0x4 DUP4 ADD DUP2 SWAP1 SSTORE PUSH1 0x5 DUP4 ADD DUP2 SWAP1 SSTORE PUSH1 0x1 DUP4 ADD SSTORE PUSH2 0x10D0 JUMP JUMPDEST PUSH1 0x1 DUP3 ADD DUP1 SLOAD DUP3 SWAP1 SUB SWAP1 SSTORE JUMPDEST DUP2 SLOAD PUSH1 0x4 SLOAD PUSH2 0x10EC SWAP2 PUSH1 0x1 PUSH1 0x1 PUSH1 0xA0 SHL SUB SWAP1 DUP2 AND SWAP2 AND DUP4 PUSH2 0xE42 JUMP JUMPDEST POP DUP2 SLOAD PUSH1 0x40 MLOAD PUSH1 0x1 PUSH1 0x1 PUSH1 0xA0 SHL SUB SWAP1 SWAP2 AND SWAP1 PUSH32 0xA54CE7327877AA2BFE1C079E3BB0DA2B7A774FE90A5AF3AFB74369F940E69C8A SWAP1 PUSH2 0xFC2 SWAP1 DUP5 SWAP1 PUSH2 0x1E16 JUMP JUMPDEST PUSH1 0x0 DUP2 GT PUSH2 0x114B JUMPI PUSH1 0x40 MLOAD PUSH3 0x461BCD PUSH1 0xE5 SHL DUP2 MSTORE PUSH1 0x4 ADD PUSH2 0x44C SWAP1 PUSH2 0x1AB0 JUMP JUMPDEST PUSH1 0x11 SLOAD PUSH1 0xFF AND PUSH2 0x116D JUMPI PUSH1 0x40 MLOAD PUSH3 0x461BCD PUSH1 0xE5 SHL DUP2 MSTORE PUSH1 0x4 ADD PUSH2 0x44C SWAP1 PUSH2 0x1CD8 JUMP JUMPDEST PUSH1 0x5 SLOAD TIMESTAMP LT ISZERO PUSH2 0x118F JUMPI PUSH1 0x40 MLOAD PUSH3 0x461BCD PUSH1 0xE5 SHL DUP2 MSTORE PUSH1 0x4 ADD PUSH2 0x44C SWAP1 PUSH2 0x17DF JUMP JUMPDEST PUSH1 0x7 SLOAD NUMBER GT ISZERO PUSH2 0x11B1 JUMPI PUSH1 0x40 MLOAD PUSH3 0x461BCD PUSH1 0xE5 SHL DUP2 MSTORE PUSH1 0x4 ADD PUSH2 0x44C SWAP1 PUSH2 0x1A53 JUMP JUMPDEST PUSH1 0xC SLOAD ISZERO PUSH2 0x11DC JUMPI PUSH1 0xC SLOAD PUSH1 0x9 SLOAD LT PUSH2 0x11DC JUMPI PUSH1 0x40 MLOAD PUSH3 0x461BCD PUSH1 0xE5 SHL DUP2 MSTORE PUSH1 0x4 ADD PUSH2 0x44C SWAP1 PUSH2 0x1C0D JUMP JUMPDEST PUSH1 0xB SLOAD ISZERO PUSH2 0x120A JUMPI PUSH1 0xB SLOAD DUP2 PUSH1 0xA SLOAD ADD GT ISZERO PUSH2 0x120A JUMPI PUSH1 0x40 MLOAD PUSH3 0x461BCD PUSH1 0xE5 SHL DUP2 MSTORE PUSH1 0x4 ADD PUSH2 0x44C SWAP1 PUSH2 0x1C0D JUMP JUMPDEST PUSH1 0xD SLOAD ISZERO PUSH2 0x123A JUMPI PUSH1 0xD SLOAD DUP2 DUP4 PUSH1 0x1 ADD SLOAD ADD GT ISZERO PUSH2 0x123A JUMPI PUSH1 0x40 MLOAD PUSH3 0x461BCD PUSH1 0xE5 SHL DUP2 MSTORE PUSH1 0x4 ADD PUSH2 0x44C SWAP1 PUSH2 0x1B0D JUMP JUMPDEST PUSH1 0xA DUP1 SLOAD DUP3 ADD SWAP1 SSTORE PUSH1 0x1 DUP3 ADD DUP1 SLOAD DUP3 ADD SWAP1 SSTORE PUSH1 0x4 SLOAD PUSH1 0x1 PUSH1 0x1 PUSH1 0xA0 SHL SUB AND PUSH2 0x12AB JUMPI DUP1 CALLVALUE LT ISZERO PUSH2 0x127C JUMPI PUSH1 0x40 MLOAD PUSH3 0x461BCD PUSH1 0xE5 SHL DUP2 MSTORE PUSH1 0x4 ADD PUSH2 0x44C SWAP1 PUSH2 0x1CA1 JUMP JUMPDEST DUP1 CALLVALUE GT ISZERO PUSH2 0x12A6 JUMPI PUSH2 0x12A4 PUSH2 0x128F PUSH2 0xE3E JUMP JUMPDEST PUSH1 0x4 SLOAD PUSH1 0x1 PUSH1 0x1 PUSH1 0xA0 SHL SUB AND CALLVALUE DUP5 SWAP1 SUB PUSH2 0xE42 JUMP JUMPDEST POP JUMPDEST PUSH2 0x12D0 JUMP JUMPDEST PUSH2 0x12D0 PUSH2 0x12B6 PUSH2 0xE3E JUMP JUMPDEST PUSH1 0x4 SLOAD PUSH1 0x1 PUSH1 0x1 PUSH1 0xA0 SHL SUB AND SWAP1 ADDRESS DUP5 PUSH4 0xFFFFFFFF PUSH2 0x13E5 AND JUMP JUMPDEST PUSH1 0x4 DUP3 ADD SLOAD PUSH2 0x131F JUMPI PUSH1 0x9 DUP1 SLOAD PUSH1 0x1 ADD SWAP1 SSTORE NUMBER PUSH1 0x4 DUP4 ADD SSTORE TIMESTAMP PUSH1 0x5 DUP4 ADD SSTORE PUSH2 0x12F6 PUSH2 0xE3E JUMP JUMPDEST DUP3 SLOAD PUSH20 0xFFFFFFFFFFFFFFFFFFFFFFFFFFFFFFFFFFFFFFFF NOT AND PUSH1 0x1 PUSH1 0x1 PUSH1 0xA0 SHL SUB SWAP2 SWAP1 SWAP2 AND OR DUP3 SSTORE JUMPDEST DUP2 SLOAD PUSH1 0x40 MLOAD PUSH1 0x1 PUSH1 0x1 PUSH1 0xA0 SHL SUB SWAP1 SWAP2 AND SWAP1 PUSH32 0x9E4D21DE6C227900B5B8728D010781C8FC172FCC6C3FE36F7CBF431C85EC7800 SWAP1 PUSH2 0xFC2 SWAP1 DUP5 SWAP1 PUSH2 0x1E16 JUMP JUMPDEST PUSH2 0x13E0 DUP4 PUSH4 0xA9059CBB PUSH1 0xE0 SHL DUP5 DUP5 PUSH1 0x40 MLOAD PUSH1 0x24 ADD PUSH2 0x137C SWAP3 SWAP2 SWAP1 PUSH2 0x1788 JUMP JUMPDEST PUSH1 0x40 DUP1 MLOAD PUSH1 0x1F NOT DUP2 DUP5 SUB ADD DUP2 MSTORE SWAP2 SWAP1 MSTORE PUSH1 0x20 DUP2 ADD DUP1 MLOAD PUSH28 0xFFFFFFFFFFFFFFFFFFFFFFFFFFFFFFFFFFFFFFFFFFFFFFFFFFFFFFFF AND PUSH32 0xFFFFFFFF00000000000000000000000000000000000000000000000000000000 SWAP1 SWAP4 AND SWAP3 SWAP1 SWAP3 OR SWAP1 SWAP2 MSTORE PUSH2 0x140C JUMP JUMPDEST POP POP POP JUMP JUMPDEST PUSH2 0x1406 DUP5 PUSH4 0x23B872DD PUSH1 0xE0 SHL DUP6 DUP6 DUP6 PUSH1 0x40 MLOAD PUSH1 0x24 ADD PUSH2 0x137C SWAP4 SWAP3 SWAP2 SWAP1 PUSH2 0x1764 JUMP JUMPDEST POP POP POP POP JUMP JUMPDEST PUSH1 0x60 PUSH2 0x1461 DUP3 PUSH1 0x40 MLOAD DUP1 PUSH1 0x40 ADD PUSH1 0x40 MSTORE DUP1 PUSH1 0x20 DUP2 MSTORE PUSH1 0x20 ADD PUSH32 0x5361666545524332303A206C6F772D6C6576656C2063616C6C206661696C6564 DUP2 MSTORE POP DUP6 PUSH1 0x1 PUSH1 0x1 PUSH1 0xA0 SHL SUB AND PUSH2 0x149B SWAP1 SWAP3 SWAP2 SWAP1 PUSH4 0xFFFFFFFF AND JUMP JUMPDEST DUP1 MLOAD SWAP1 SWAP2 POP ISZERO PUSH2 0x13E0 JUMPI DUP1 DUP1 PUSH1 0x20 ADD SWAP1 MLOAD DUP2 ADD SWAP1 PUSH2 0x147F SWAP2 SWAP1 PUSH2 0x16A6 JUMP JUMPDEST PUSH2 0x13E0 JUMPI PUSH1 0x40 MLOAD PUSH3 0x461BCD PUSH1 0xE5 SHL DUP2 MSTORE PUSH1 0x4 ADD PUSH2 0x44C SWAP1 PUSH2 0x1D35 JUMP JUMPDEST PUSH1 0x60 PUSH2 0x14AA DUP5 DUP5 PUSH1 0x0 DUP6 PUSH2 0x14B2 JUMP JUMPDEST SWAP5 SWAP4 POP POP POP POP JUMP JUMPDEST PUSH1 0x60 DUP3 SELFBALANCE LT ISZERO PUSH2 0x14D4 JUMPI PUSH1 0x40 MLOAD PUSH3 0x461BCD PUSH1 0xE5 SHL DUP2 MSTORE PUSH1 0x4 ADD PUSH2 0x44C SWAP1 PUSH2 0x19F6 JUMP JUMPDEST PUSH2 0x14DD DUP6 PUSH2 0x1573 JUMP JUMPDEST PUSH2 0x14F9 JUMPI PUSH1 0x40 MLOAD PUSH3 0x461BCD PUSH1 0xE5 SHL DUP2 MSTORE PUSH1 0x4 ADD PUSH2 0x44C SWAP1 PUSH2 0x1C6A JUMP JUMPDEST PUSH1 0x0 PUSH1 0x60 DUP7 PUSH1 0x1 PUSH1 0x1 PUSH1 0xA0 SHL SUB AND DUP6 DUP8 PUSH1 0x40 MLOAD PUSH2 0x1516 SWAP2 SWAP1 PUSH2 0x1734 JUMP JUMPDEST PUSH1 0x0 PUSH1 0x40 MLOAD DUP1 DUP4 SUB DUP2 DUP6 DUP8 GAS CALL SWAP3 POP POP POP RETURNDATASIZE DUP1 PUSH1 0x0 DUP2 EQ PUSH2 0x1553 JUMPI PUSH1 0x40 MLOAD SWAP2 POP PUSH1 0x1F NOT PUSH1 0x3F RETURNDATASIZE ADD AND DUP3 ADD PUSH1 0x40 MSTORE RETURNDATASIZE DUP3 MSTORE RETURNDATASIZE PUSH1 0x0 PUSH1 0x20 DUP5 ADD RETURNDATACOPY PUSH2 0x1558 JUMP JUMPDEST PUSH1 0x60 SWAP2 POP JUMPDEST POP SWAP2 POP SWAP2 POP PUSH2 0x1568 DUP3 DUP3 DUP7 PUSH2 0x1579 JUMP JUMPDEST SWAP8 SWAP7 POP POP POP POP POP POP POP JUMP JUMPDEST EXTCODESIZE ISZERO ISZERO SWAP1 JUMP JUMPDEST PUSH1 0x60 DUP4 ISZERO PUSH2 0x1588 JUMPI POP DUP2 PUSH2 0xF26 JUMP JUMPDEST DUP3 MLOAD ISZERO PUSH2 0x1598 JUMPI DUP3 MLOAD DUP1 DUP5 PUSH1 0x20 ADD REVERT JUMPDEST DUP2 PUSH1 0x40 MLOAD PUSH3 0x461BCD PUSH1 0xE5 SHL DUP2 MSTORE PUSH1 0x4 ADD PUSH2 0x44C SWAP2 SWAP1 PUSH2 0x17AC JUMP JUMPDEST PUSH1 0x40 MLOAD DUP1 PUSH1 0xC0 ADD PUSH1 0x40 MSTORE DUP1 PUSH1 0x0 PUSH1 0x1 PUSH1 0x1 PUSH1 0xA0 SHL SUB AND DUP2 MSTORE PUSH1 0x20 ADD PUSH1 0x0 DUP2 MSTORE PUSH1 0x20 ADD PUSH1 0x0 DUP2 MSTORE PUSH1 0x20 ADD PUSH1 0x0 DUP2 MSTORE PUSH1 0x20 ADD PUSH1 0x0 DUP2 MSTORE PUSH1 0x20 ADD PUSH1 0x0 DUP2 MSTORE POP SWAP1 JUMP JUMPDEST DUP1 CALLDATALOAD PUSH1 0x1 PUSH1 0x1 PUSH1 0xA0 SHL SUB DUP2 AND DUP2 EQ PUSH2 0x1608 JUMPI PUSH1 0x0 DUP1 REVERT JUMPDEST SWAP3 SWAP2 POP POP JUMP JUMPDEST PUSH1 0x0 PUSH1 0x20 DUP3 DUP5 SUB SLT ISZERO PUSH2 0x161F JUMPI DUP1 DUP2 REVERT JUMPDEST PUSH2 0xF26 DUP4 DUP4 PUSH2 0x15F1 JUMP JUMPDEST PUSH1 0x0 DUP1 PUSH1 0x40 DUP4 DUP6 SUB SLT ISZERO PUSH2 0x163B JUMPI DUP1 DUP2 REVERT JUMPDEST PUSH2 0x1645 DUP5 DUP5 PUSH2 0x15F1 JUMP JUMPDEST SWAP2 POP PUSH1 0x20 DUP4 ADD CALLDATALOAD PUSH2 0x1655 DUP2 PUSH2 0x1EE3 JUMP JUMPDEST DUP1 SWAP2 POP POP SWAP3 POP SWAP3 SWAP1 POP JUMP JUMPDEST PUSH1 0x0 DUP1 PUSH1 0x40 DUP4 DUP6 SUB SLT ISZERO PUSH2 0x1672 JUMPI DUP2 DUP3 REVERT JUMPDEST PUSH2 0x167C DUP5 DUP5 PUSH2 0x15F1 JUMP JUMPDEST SWAP5 PUSH1 0x20 SWAP4 SWAP1 SWAP4 ADD CALLDATALOAD SWAP4 POP POP POP JUMP JUMPDEST PUSH1 0x0 PUSH1 0x20 DUP3 DUP5 SUB SLT ISZERO PUSH2 0x169B JUMPI DUP1 DUP2 REVERT JUMPDEST DUP2 CALLDATALOAD PUSH2 0xF26 DUP2 PUSH2 0x1EE3 JUMP JUMPDEST PUSH1 0x0 PUSH1 0x20 DUP3 DUP5 SUB SLT ISZERO PUSH2 0x16B7 JUMPI DUP1 DUP2 REVERT JUMPDEST DUP2 MLOAD PUSH2 0xF26 DUP2 PUSH2 0x1EE3 JUMP JUMPDEST PUSH1 0x0 PUSH1 0x20 DUP3 DUP5 SUB SLT ISZERO PUSH2 0x16D3 JUMPI DUP1 DUP2 REVERT JUMPDEST POP CALLDATALOAD SWAP2 SWAP1 POP JUMP JUMPDEST PUSH1 0x0 PUSH1 0x20 DUP3 DUP5 SUB SLT ISZERO PUSH2 0x16EB JUMPI DUP1 DUP2 REVERT JUMPDEST POP MLOAD SWAP2 SWAP1 POP JUMP JUMPDEST PUSH1 0x0 DUP1 PUSH1 0x0 DUP1 PUSH1 0x0 DUP1 PUSH1 0xC0 DUP8 DUP10 SUB SLT ISZERO PUSH2 0x170A JUMPI DUP2 DUP3 REVERT JUMPDEST POP POP DUP5 CALLDATALOAD SWAP7 PUSH1 0x20 DUP7 ADD CALLDATALOAD SWAP7 POP PUSH1 0x40 DUP7 ADD CALLDATALOAD SWAP6 PUSH1 0x60 DUP2 ADD CALLDATALOAD SWAP6 POP PUSH1 0x80 DUP2 ADD CALLDATALOAD SWAP5 POP PUSH1 0xA0 ADD CALLDATALOAD SWAP3 POP SWAP1 POP JUMP JUMPDEST PUSH1 0x0 DUP3 MLOAD PUSH2 0x1746 DUP2 DUP5 PUSH1 0x20 DUP8 ADD PUSH2 0x1EB7 JUMP JUMPDEST SWAP2 SWAP1 SWAP2 ADD SWAP3 SWAP2 POP POP JUMP JUMPDEST PUSH1 0x1 PUSH1 0x1 PUSH1 0xA0 SHL SUB SWAP2 SWAP1 SWAP2 AND DUP2 MSTORE PUSH1 0x20 ADD SWAP1 JUMP JUMPDEST PUSH1 0x1 PUSH1 0x1 PUSH1 0xA0 SHL SUB SWAP4 DUP5 AND DUP2 MSTORE SWAP2 SWAP1 SWAP3 AND PUSH1 0x20 DUP3 ADD MSTORE PUSH1 0x40 DUP2 ADD SWAP2 SWAP1 SWAP2 MSTORE PUSH1 0x60 ADD SWAP1 JUMP JUMPDEST PUSH1 0x1 PUSH1 0x1 PUSH1 0xA0 SHL SUB SWAP3 SWAP1 SWAP3 AND DUP3 MSTORE PUSH1 0x20 DUP3 ADD MSTORE PUSH1 0x40 ADD SWAP1 JUMP JUMPDEST SWAP1 ISZERO ISZERO DUP2 MSTORE PUSH1 0x20 ADD SWAP1 JUMP JUMPDEST PUSH1 0x0 PUSH1 0x20 DUP3 MSTORE DUP3 MLOAD DUP1 PUSH1 0x20 DUP5 ADD MSTORE PUSH2 0x17CB DUP2 PUSH1 0x40 DUP6 ADD PUSH1 0x20 DUP8 ADD PUSH2 0x1EB7 JUMP JUMPDEST PUSH1 0x1F ADD PUSH1 0x1F NOT AND SWAP2 SWAP1 SWAP2 ADD PUSH1 0x40 ADD SWAP3 SWAP2 POP POP JUMP JUMPDEST PUSH1 0x20 DUP1 DUP3 MSTORE PUSH1 0x29 SWAP1 DUP3 ADD MSTORE PUSH32 0x5374616B696E673A2054686973207374616B696E6720686173206E6F74207374 PUSH1 0x40 DUP3 ADD MSTORE PUSH32 0x6172746564207965740000000000000000000000000000000000000000000000 PUSH1 0x60 DUP3 ADD MSTORE PUSH1 0x80 ADD SWAP1 JUMP JUMPDEST PUSH1 0x20 DUP1 DUP3 MSTORE PUSH1 0x26 SWAP1 DUP3 ADD MSTORE PUSH32 0x4F776E61626C653A206E6577206F776E657220697320746865207A65726F2061 PUSH1 0x40 DUP3 ADD MSTORE PUSH32 0x6464726573730000000000000000000000000000000000000000000000000000 PUSH1 0x60 DUP3 ADD MSTORE PUSH1 0x80 ADD SWAP1 JUMP JUMPDEST PUSH1 0x20 DUP1 DUP3 MSTORE PUSH1 0xF SWAP1 DUP3 ADD MSTORE PUSH32 0x457863656564732062616C616E63650000000000000000000000000000000000 PUSH1 0x40 DUP3 ADD MSTORE PUSH1 0x60 ADD SWAP1 JUMP JUMPDEST PUSH1 0x20 DUP1 DUP3 MSTORE PUSH1 0x3A SWAP1 DUP3 ADD MSTORE PUSH32 0x5374616B696E673A2063616E206E6F7420776974686472617720737461636B69 PUSH1 0x40 DUP3 ADD MSTORE PUSH32 0x6E6720746F6B656E73206265666F7265206C6F636B2074696D65000000000000 PUSH1 0x60 DUP3 ADD MSTORE PUSH1 0x80 ADD SWAP1 JUMP JUMPDEST PUSH1 0x20 DUP1 DUP3 MSTORE DUP2 DUP2 ADD MSTORE PUSH32 0x47616D655374616B653A206661696C656420746F2073656E6420546F6B656E73 PUSH1 0x40 DUP3 ADD MSTORE PUSH1 0x60 ADD SWAP1 JUMP JUMPDEST PUSH1 0x20 DUP1 DUP3 MSTORE PUSH1 0x21 SWAP1 DUP3 ADD MSTORE PUSH32 0x42616C616E6365206D7573742062652067726561746572207468616E207A6572 PUSH1 0x40 DUP3 ADD MSTORE PUSH32 0x6F00000000000000000000000000000000000000000000000000000000000000 PUSH1 0x60 DUP3 ADD MSTORE PUSH1 0x80 ADD SWAP1 JUMP JUMPDEST PUSH1 0x20 DUP1 DUP3 MSTORE PUSH1 0x1D SWAP1 DUP3 ADD MSTORE PUSH32 0x5374616B696E673A20596F7520617265206E6F742061207374616B6572000000 PUSH1 0x40 DUP3 ADD MSTORE PUSH1 0x60 ADD SWAP1 JUMP JUMPDEST PUSH1 0x20 DUP1 DUP3 MSTORE PUSH1 0x26 SWAP1 DUP3 ADD MSTORE PUSH32 0x416464726573733A20696E73756666696369656E742062616C616E636520666F PUSH1 0x40 DUP3 ADD MSTORE PUSH32 0x722063616C6C0000000000000000000000000000000000000000000000000000 PUSH1 0x60 DUP3 ADD MSTORE PUSH1 0x80 ADD SWAP1 JUMP JUMPDEST PUSH1 0x20 DUP1 DUP3 MSTORE PUSH1 0x29 SWAP1 DUP3 ADD MSTORE PUSH32 0x5374616B696E673A2054686973207374616B696E672069732063757272656E74 PUSH1 0x40 DUP3 ADD MSTORE PUSH32 0x6C7920636C6F7365640000000000000000000000000000000000000000000000 PUSH1 0x60 DUP3 ADD MSTORE PUSH1 0x80 ADD SWAP1 JUMP JUMPDEST PUSH1 0x20 DUP1 DUP3 MSTORE PUSH1 0x29 SWAP1 DUP3 ADD MSTORE PUSH32 0x5374616B696E673A20416D6F756E74206D757374206265206772656174657220 PUSH1 0x40 DUP3 ADD MSTORE PUSH32 0x7468616E207A65726F0000000000000000000000000000000000000000000000 PUSH1 0x60 DUP3 ADD MSTORE PUSH1 0x80 ADD SWAP1 JUMP JUMPDEST PUSH1 0x20 DUP1 DUP3 MSTORE PUSH1 0x29 SWAP1 DUP3 ADD MSTORE PUSH32 0x5374616B696E673A20596F757220746F74616C207374616B652073697A652069 PUSH1 0x40 DUP3 ADD MSTORE PUSH32 0x7320746F6F206269670000000000000000000000000000000000000000000000 PUSH1 0x60 DUP3 ADD MSTORE PUSH1 0x80 ADD SWAP1 JUMP JUMPDEST PUSH1 0x20 DUP1 DUP3 MSTORE DUP2 DUP2 ADD MSTORE PUSH32 0x4F776E61626C653A2063616C6C6572206973206E6F7420746865206F776E6572 PUSH1 0x40 DUP3 ADD MSTORE PUSH1 0x60 ADD SWAP1 JUMP JUMPDEST PUSH1 0x20 DUP1 DUP3 MSTORE PUSH1 0x1F SWAP1 DUP3 ADD MSTORE PUSH32 0x5374616B696E673A20546F6F206561726C7920666F7220776974686472617700 PUSH1 0x40 DUP3 ADD MSTORE PUSH1 0x60 ADD SWAP1 JUMP JUMPDEST PUSH1 0x20 DUP1 DUP3 MSTORE PUSH1 0x1A SWAP1 DUP3 ADD MSTORE PUSH32 0x5374616B696E673A206E6F7420656E6F75676820746F6B656E73000000000000 PUSH1 0x40 DUP3 ADD MSTORE PUSH1 0x60 ADD SWAP1 JUMP JUMPDEST PUSH1 0x20 DUP1 DUP3 MSTORE PUSH1 0x23 SWAP1 DUP3 ADD MSTORE PUSH32 0x5374616B696E673A2054686973207374616B6520697320616C72656164792066 PUSH1 0x40 DUP3 ADD MSTORE PUSH32 0x756C6C0000000000000000000000000000000000000000000000000000000000 PUSH1 0x60 DUP3 ADD MSTORE PUSH1 0x80 ADD SWAP1 JUMP JUMPDEST PUSH1 0x20 DUP1 DUP3 MSTORE PUSH1 0x1D SWAP1 DUP3 ADD MSTORE PUSH32 0x416464726573733A2063616C6C20746F206E6F6E2D636F6E7472616374000000 PUSH1 0x40 DUP3 ADD MSTORE PUSH1 0x60 ADD SWAP1 JUMP JUMPDEST PUSH1 0x20 DUP1 DUP3 MSTORE PUSH1 0x15 SWAP1 DUP3 ADD MSTORE PUSH32 0x5374616B696E673A2057726F6E6720616D6F756E740000000000000000000000 PUSH1 0x40 DUP3 ADD MSTORE PUSH1 0x60 ADD SWAP1 JUMP JUMPDEST PUSH1 0x20 DUP1 DUP3 MSTORE PUSH1 0x2C SWAP1 DUP3 ADD MSTORE PUSH32 0x5374616B696E673A2054686973207374616B6520697320696E61637469766520 PUSH1 0x40 DUP3 ADD MSTORE PUSH32 0x6F72206E6F742065786973740000000000000000000000000000000000000000 PUSH1 0x60 DUP3 ADD MSTORE PUSH1 0x80 ADD SWAP1 JUMP JUMPDEST PUSH1 0x20 DUP1 DUP3 MSTORE PUSH1 0x2A SWAP1 DUP3 ADD MSTORE PUSH32 0x5361666545524332303A204552433230206F7065726174696F6E20646964206E PUSH1 0x40 DUP3 ADD MSTORE PUSH32 0x6F74207375636365656400000000000000000000000000000000000000000000 PUSH1 0x60 DUP3 ADD MSTORE PUSH1 0x80 ADD SWAP1 JUMP JUMPDEST PUSH1 0x20 DUP1 DUP3 MSTORE PUSH1 0x1F SWAP1 DUP3 ADD MSTORE PUSH32 0x5265656E7472616E637947756172643A207265656E7472616E742063616C6C00 PUSH1 0x40 DUP3 ADD MSTORE PUSH1 0x60 ADD SWAP1 JUMP JUMPDEST PUSH1 0x0 PUSH1 0xC0 DUP3 ADD SWAP1 POP PUSH1 0x1 PUSH1 0x1 PUSH1 0xA0 SHL SUB DUP4 MLOAD AND DUP3 MSTORE PUSH1 0x20 DUP4 ADD MLOAD PUSH1 0x20 DUP4 ADD MSTORE PUSH1 0x40 DUP4 ADD MLOAD PUSH1 0x40 DUP4 ADD MSTORE PUSH1 0x60 DUP4 ADD MLOAD PUSH1 0x60 DUP4 ADD MSTORE PUSH1 0x80 DUP4 ADD MLOAD PUSH1 0x80 DUP4 ADD MSTORE PUSH1 0xA0 DUP4 ADD MLOAD PUSH1 0xA0 DUP4 ADD MSTORE SWAP3 SWAP2 POP POP JUMP JUMPDEST SWAP1 DUP2 MSTORE PUSH1 0x20 ADD SWAP1 JUMP JUMPDEST SWAP9 DUP10 MSTORE PUSH1 0x20 DUP10 ADD SWAP8 SWAP1 SWAP8 MSTORE PUSH1 0x1 PUSH1 0x1 PUSH1 0xA0 SHL SUB SWAP6 DUP7 AND PUSH1 0x40 DUP10 ADD MSTORE SWAP4 SWAP1 SWAP5 AND PUSH1 0x60 DUP8 ADD MSTORE PUSH1 0x80 DUP7 ADD SWAP2 SWAP1 SWAP2 MSTORE PUSH1 0xA0 DUP6 ADD MSTORE PUSH1 0xC0 DUP5 ADD SWAP2 SWAP1 SWAP2 MSTORE PUSH1 0xE0 DUP4 ADD MSTORE ISZERO ISZERO PUSH2 0x100 DUP3 ADD MSTORE PUSH2 0x120 ADD SWAP1 JUMP JUMPDEST SWAP5 DUP6 MSTORE PUSH1 0x20 DUP6 ADD SWAP4 SWAP1 SWAP4 MSTORE PUSH1 0x40 DUP5 ADD SWAP2 SWAP1 SWAP2 MSTORE PUSH1 0x60 DUP4 ADD MSTORE PUSH1 0x80 DUP3 ADD MSTORE PUSH1 0xA0 ADD SWAP1 JUMP JUMPDEST SWAP6 DUP7 MSTORE PUSH1 0x20 DUP7 ADD SWAP5 SWAP1 SWAP5 MSTORE PUSH1 0x40 DUP6 ADD SWAP3 SWAP1 SWAP3 MSTORE PUSH1 0x60 DUP5 ADD MSTORE PUSH1 0x80 DUP4 ADD MSTORE PUSH1 0xA0 DUP3 ADD MSTORE PUSH1 0xC0 ADD SWAP1 JUMP JUMPDEST PUSH1 0x0 JUMPDEST DUP4 DUP2 LT ISZERO PUSH2 0x1ED2 JUMPI DUP2 DUP2 ADD MLOAD DUP4 DUP3 ADD MSTORE PUSH1 0x20 ADD PUSH2 0x1EBA JUMP JUMPDEST DUP4 DUP2 GT ISZERO PUSH2 0x1406 JUMPI POP POP PUSH1 0x0 SWAP2 ADD MSTORE JUMP JUMPDEST DUP1 ISZERO ISZERO DUP2 EQ PUSH2 0x1EF1 JUMPI PUSH1 0x0 DUP1 REVERT JUMPDEST POP JUMP INVALID LOG2 PUSH5 0x6970667358 0x22 SLT KECCAK256 MULMOD PUSH23 0xC5722F7B81435923A4408D04D60177C2373EFA930DC67 0xBF 0xD6 0x4A 0xCE PUSH18 0xF89D64736F6C634300060600330000000000 "},"gasEstimates":{"creation":{"codeDepositCost":"1595600","executionCost":"infinite","totalCost":"infinite"},"external":{"BLOCKS_IN_YEAR()":"294","earned(address)":"10795","emergencyWithdrawal(address,bool)":"infinite","getStakeConditionsInfo()":"5211","getStakeInfo()":"7760","getTokenBalance(address)":"infinite","getUserInfo(address)":"5886","harvest()":"infinite","owner()":"1160","renounceOwnership()":"24333","rewardPerToken()":"5255","setActive(bool)":"infinite","setRewardPerBlock(uint256)":"infinite","stakeTokens(uint256)":"infinite","transferOwnership(address)":"24572","updateStake(uint256,uint256,uint256,uint256,uint256,uint256)":"infinite","withdraw(uint256)":"infinite","withdrawTokens(address,uint256)":"infinite"},"internal":{"_stake(struct Staking.Staker storage pointer,uint256)":"infinite","_withdrawHarvest(struct Staking.Staker storage pointer)":"infinite","_withdrawLP(struct Staking.Staker storage pointer,uint256)":"infinite","sendTokens(address,address,uint256)":"infinite"}},"methodIdentifiers":{"BLOCKS_IN_YEAR()":"dd421cd5","earned(address)":"008cc262","emergencyWithdrawal(address,bool)":"21d18adc","getStakeConditionsInfo()":"4d1f7e65","getStakeInfo()":"74a4030f","getTokenBalance(address)":"3aecd0e3","getUserInfo(address)":"6386c1c7","harvest()":"4641257d","owner()":"8da5cb5b","renounceOwnership()":"715018a6","rewardPerToken()":"cd3daf9d","setActive(bool)":"acec338a","setRewardPerBlock(uint256)":"bb872b4a","stakeTokens(uint256)":"7547c7a3","transferOwnership(address)":"f2fde38b","updateStake(uint256,uint256,uint256,uint256,uint256,uint256)":"8cbf5309","withdraw(uint256)":"2e1a7d4d","withdrawTokens(address,uint256)":"06b091f9"}},"storageLayout":{"storage":[{"astId":7,"contract":"contracts/periphery/test/Staking.sol:Staking","label":"_owner","offset":0,"slot":"0","type":"t_address"},{"astId":1085,"contract":"contracts/periphery/test/Staking.sol:Staking","label":"_status","offset":0,"slot":"1","type":"t_uint256"},{"astId":1135,"contract":"contracts/periphery/test/Staking.sol:Staking","label":"_stakers","offset":0,"slot":"2","type":"t_mapping(t_address,t_struct(Staker)1178_storage)"},{"astId":1137,"contract":"contracts/periphery/test/Staking.sol:Staking","label":"_rewardToken","offset":0,"slot":"3","type":"t_address"},{"astId":1139,"contract":"contracts/periphery/test/Staking.sol:Staking","label":"_stakingToken","offset":0,"slot":"4","type":"t_address"},{"astId":1141,"contract":"contracts/periphery/test/Staking.sol:Staking","label":"_startsAt","offset":0,"slot":"5","type":"t_uint256"},{"astId":1143,"contract":"contracts/periphery/test/Staking.sol:Staking","label":"_durationInBlocks","offset":0,"slot":"6","type":"t_uint256"},{"astId":1145,"contract":"contracts/periphery/test/Staking.sol:Staking","label":"_finishBlock","offset":0,"slot":"7","type":"t_uint256"},{"astId":1147,"contract":"contracts/periphery/test/Staking.sol:Staking","label":"_lpLockTime","offset":0,"slot":"8","type":"t_uint256"},{"astId":1149,"contract":"contracts/periphery/test/Staking.sol:Staking","label":"_numberOfStakers","offset":0,"slot":"9","type":"t_uint256"},{"astId":1151,"contract":"contracts/periphery/test/Staking.sol:Staking","label":"_lpTotalAmount","offset":0,"slot":"10","type":"t_uint256"},{"astId":1153,"contract":"contracts/periphery/test/Staking.sol:Staking","label":"_lpTotalLimit","offset":0,"slot":"11","type":"t_uint256"},{"astId":1155,"contract":"contracts/periphery/test/Staking.sol:Staking","label":"_stakersLimit","offset":0,"slot":"12","type":"t_uint256"},{"astId":1157,"contract":"contracts/periphery/test/Staking.sol:Staking","label":"_maxStakePerStaker","offset":0,"slot":"13","type":"t_uint256"},{"astId":1159,"contract":"contracts/periphery/test/Staking.sol:Staking","label":"_rewardsPerBlock","offset":0,"slot":"14","type":"t_uint256"},{"astId":1161,"contract":"contracts/periphery/test/Staking.sol:Staking","label":"_rewardPerTokenStored","offset":0,"slot":"15","type":"t_uint256"},{"astId":1163,"contract":"contracts/periphery/test/Staking.sol:Staking","label":"_lastUpdateBlock","offset":0,"slot":"16","type":"t_uint256"},{"astId":1165,"contract":"contracts/periphery/test/Staking.sol:Staking","label":"_isActive","offset":0,"slot":"17","type":"t_bool"}],"types":{"t_address":{"encoding":"inplace","label":"address","numberOfBytes":"20"},"t_bool":{"encoding":"inplace","label":"bool","numberOfBytes":"1"},"t_mapping(t_address,t_struct(Staker)1178_storage)":{"encoding":"mapping","key":"t_address","label":"mapping(address => struct Staking.Staker)","numberOfBytes":"32","value":"t_struct(Staker)1178_storage"},"t_struct(Staker)1178_storage":{"encoding":"inplace","label":"struct Staking.Staker","members":[{"astId":1167,"contract":"contracts/periphery/test/Staking.sol:Staking","label":"stakerAddress","offset":0,"slot":"0","type":"t_address"},{"astId":1169,"contract":"contracts/periphery/test/Staking.sol:Staking","label":"balance","offset":0,"slot":"1","type":"t_uint256"},{"astId":1171,"contract":"contracts/periphery/test/Staking.sol:Staking","label":"rewards","offset":0,"slot":"2","type":"t_uint256"},{"astId":1173,"contract":"contracts/periphery/test/Staking.sol:Staking","label":"rewardPerTokenPaid","offset":0,"slot":"3","type":"t_uint256"},{"astId":1175,"contract":"contracts/periphery/test/Staking.sol:Staking","label":"startBlock","offset":0,"slot":"4","type":"t_uint256"},{"astId":1177,"contract":"contracts/periphery/test/Staking.sol:Staking","label":"startTime","offset":0,"slot":"5","type":"t_uint256"}],"numberOfBytes":"192"},"t_uint256":{"encoding":"inplace","label":"uint256","numberOfBytes":"32"}}},"userdoc":{"methods":{"withdraw(uint256)":{"notice":"Dev: withdraw both lp and reward tokens*"},"withdrawTokens(address,uint256)":{"notice":"Dev: owner or Creator can withdrawal Rewards tokens.*"}}}}}}